{
  "address": "0x37Fbd558bc46bbD794f1403601c06F8741a9f703",
  "abi": [
    {
      "anonymous": false,
      "inputs": [
        {
          "indexed": true,
          "internalType": "address",
          "name": "account",
          "type": "address"
        },
        {
          "indexed": true,
          "internalType": "address",
          "name": "operator",
          "type": "address"
        },
        {
          "indexed": false,
          "internalType": "bool",
          "name": "approved",
          "type": "bool"
        }
      ],
      "name": "ApprovalForAll",
      "type": "event"
    },
    {
      "anonymous": false,
      "inputs": [
        {
          "indexed": false,
          "internalType": "uint8",
          "name": "version",
          "type": "uint8"
        }
      ],
      "name": "Initialized",
      "type": "event"
    },
    {
      "anonymous": false,
      "inputs": [
        {
          "indexed": true,
          "internalType": "bytes32",
          "name": "role",
          "type": "bytes32"
        },
        {
          "indexed": true,
          "internalType": "bytes32",
          "name": "previousAdminRole",
          "type": "bytes32"
        },
        {
          "indexed": true,
          "internalType": "bytes32",
          "name": "newAdminRole",
          "type": "bytes32"
        }
      ],
      "name": "RoleAdminChanged",
      "type": "event"
    },
    {
      "anonymous": false,
      "inputs": [
        {
          "indexed": true,
          "internalType": "bytes32",
          "name": "role",
          "type": "bytes32"
        },
        {
          "indexed": true,
          "internalType": "address",
          "name": "account",
          "type": "address"
        },
        {
          "indexed": true,
          "internalType": "address",
          "name": "sender",
          "type": "address"
        }
      ],
      "name": "RoleGranted",
      "type": "event"
    },
    {
      "anonymous": false,
      "inputs": [
        {
          "indexed": true,
          "internalType": "bytes32",
          "name": "role",
          "type": "bytes32"
        },
        {
          "indexed": true,
          "internalType": "address",
          "name": "account",
          "type": "address"
        },
        {
          "indexed": true,
          "internalType": "address",
          "name": "sender",
          "type": "address"
        }
      ],
      "name": "RoleRevoked",
      "type": "event"
    },
    {
      "anonymous": false,
      "inputs": [
        {
          "indexed": true,
          "internalType": "address",
          "name": "operator",
          "type": "address"
        },
        {
          "indexed": true,
          "internalType": "address",
          "name": "from",
          "type": "address"
        },
        {
          "indexed": true,
          "internalType": "address",
          "name": "to",
          "type": "address"
        },
        {
          "indexed": false,
          "internalType": "uint256[]",
          "name": "ids",
          "type": "uint256[]"
        },
        {
          "indexed": false,
          "internalType": "uint256[]",
          "name": "values",
          "type": "uint256[]"
        }
      ],
      "name": "TransferBatch",
      "type": "event"
    },
    {
      "anonymous": false,
      "inputs": [
        {
          "indexed": true,
          "internalType": "address",
          "name": "operator",
          "type": "address"
        },
        {
          "indexed": true,
          "internalType": "address",
          "name": "from",
          "type": "address"
        },
        {
          "indexed": true,
          "internalType": "address",
          "name": "to",
          "type": "address"
        },
        {
          "indexed": false,
          "internalType": "uint256",
          "name": "id",
          "type": "uint256"
        },
        {
          "indexed": false,
          "internalType": "uint256",
          "name": "value",
          "type": "uint256"
        }
      ],
      "name": "TransferSingle",
      "type": "event"
    },
    {
      "anonymous": false,
      "inputs": [
        {
          "indexed": false,
          "internalType": "string",
          "name": "value",
          "type": "string"
        },
        {
          "indexed": true,
          "internalType": "uint256",
          "name": "id",
          "type": "uint256"
        }
      ],
      "name": "URI",
      "type": "event"
    },
    {
      "anonymous": false,
      "inputs": [
        {
          "indexed": false,
          "internalType": "address",
          "name": "creator",
          "type": "address"
        },
        {
          "indexed": false,
          "internalType": "uint256",
          "name": "id",
          "type": "uint256"
        }
      ],
      "name": "burnNFT",
      "type": "event"
    },
    {
      "anonymous": false,
      "inputs": [
        {
          "indexed": false,
          "internalType": "uint256",
          "name": "userId",
          "type": "uint256"
        },
        {
          "indexed": false,
          "internalType": "bytes",
          "name": "info",
          "type": "bytes"
        },
        {
          "indexed": false,
          "internalType": "enum stockenCapital.Category",
          "name": "category",
          "type": "uint8"
        },
        {
          "indexed": false,
          "internalType": "uint256",
          "name": "id",
          "type": "uint256"
        }
      ],
      "name": "newActivo",
      "type": "event"
    },
    {
      "anonymous": false,
      "inputs": [
        {
          "indexed": false,
          "internalType": "uint256",
          "name": "ownerId",
          "type": "uint256"
        },
        {
          "indexed": false,
          "internalType": "uint256",
          "name": "idDocument",
          "type": "uint256"
        },
        {
          "indexed": false,
          "internalType": "bytes32",
          "name": "hashDocument",
          "type": "bytes32"
        }
      ],
      "name": "newDocumento",
      "type": "event"
    },
    {
      "anonymous": false,
      "inputs": [
        {
          "indexed": false,
          "internalType": "address",
          "name": "userAddress",
          "type": "address"
        },
        {
          "indexed": false,
          "internalType": "uint256",
          "name": "nftID",
          "type": "uint256"
        },
        {
          "indexed": false,
          "internalType": "uint256",
          "name": "amount",
          "type": "uint256"
        }
      ],
      "name": "nftMinted",
      "type": "event"
    },
    {
      "inputs": [],
      "name": "DEFAULT_ADMIN_ROLE",
      "outputs": [
        {
          "internalType": "bytes32",
          "name": "",
          "type": "bytes32"
        }
      ],
      "stateMutability": "view",
      "type": "function"
    },
    {
      "inputs": [
        {
          "internalType": "uint256",
          "name": "",
          "type": "uint256"
        }
      ],
      "name": "activos",
      "outputs": [
        {
          "internalType": "address",
          "name": "owner",
          "type": "address"
        },
        {
          "internalType": "uint256",
          "name": "idUser",
          "type": "uint256"
        },
        {
          "internalType": "uint256",
          "name": "idCompany",
          "type": "uint256"
        },
        {
          "internalType": "uint256",
          "name": "amount",
          "type": "uint256"
        },
        {
          "internalType": "enum stockenCapital.Category",
          "name": "category",
          "type": "uint8"
        },
        {
          "internalType": "bytes",
          "name": "info",
          "type": "bytes"
        }
      ],
      "stateMutability": "view",
      "type": "function"
    },
    {
      "inputs": [
        {
          "internalType": "uint256",
          "name": "",
          "type": "uint256"
        },
        {
          "internalType": "uint256",
          "name": "",
          "type": "uint256"
        }
      ],
      "name": "activosByUser",
      "outputs": [
        {
          "internalType": "address",
          "name": "owner",
          "type": "address"
        },
        {
          "internalType": "uint256",
          "name": "idUser",
          "type": "uint256"
        },
        {
          "internalType": "uint256",
          "name": "idCompany",
          "type": "uint256"
        },
        {
          "internalType": "uint256",
          "name": "amount",
          "type": "uint256"
        },
        {
          "internalType": "enum stockenCapital.Category",
          "name": "category",
          "type": "uint8"
        },
        {
          "internalType": "bytes",
          "name": "info",
          "type": "bytes"
        }
      ],
      "stateMutability": "view",
      "type": "function"
    },
    {
      "inputs": [
        {
          "internalType": "address",
          "name": "account",
          "type": "address"
        },
        {
          "internalType": "uint256",
          "name": "id",
          "type": "uint256"
        }
      ],
      "name": "balanceOf",
      "outputs": [
        {
          "internalType": "uint256",
          "name": "",
          "type": "uint256"
        }
      ],
      "stateMutability": "view",
      "type": "function"
    },
    {
      "inputs": [
        {
          "internalType": "address[]",
          "name": "accounts",
          "type": "address[]"
        },
        {
          "internalType": "uint256[]",
          "name": "ids",
          "type": "uint256[]"
        }
      ],
      "name": "balanceOfBatch",
      "outputs": [
        {
          "internalType": "uint256[]",
          "name": "",
          "type": "uint256[]"
        }
      ],
      "stateMutability": "view",
      "type": "function"
    },
    {
      "inputs": [
        {
          "internalType": "address",
          "name": "account",
          "type": "address"
        },
        {
          "internalType": "uint256",
          "name": "id",
          "type": "uint256"
        },
        {
          "internalType": "uint256",
          "name": "value",
          "type": "uint256"
        }
      ],
      "name": "burn",
      "outputs": [],
      "stateMutability": "nonpayable",
      "type": "function"
    },
    {
      "inputs": [
        {
          "internalType": "address",
          "name": "account",
          "type": "address"
        },
        {
          "internalType": "uint256[]",
          "name": "ids",
          "type": "uint256[]"
        },
        {
          "internalType": "uint256[]",
          "name": "values",
          "type": "uint256[]"
        }
      ],
      "name": "burnBatch",
      "outputs": [],
      "stateMutability": "nonpayable",
      "type": "function"
    },
    {
      "inputs": [
        {
          "internalType": "address",
          "name": "_owner",
          "type": "address"
        },
        {
          "internalType": "uint256",
          "name": "tokenId",
          "type": "uint256"
        }
      ],
      "name": "burnIt",
      "outputs": [],
      "stateMutability": "nonpayable",
      "type": "function"
    },
    {
      "inputs": [],
      "name": "contractURI",
      "outputs": [
        {
          "internalType": "string",
          "name": "",
          "type": "string"
        }
      ],
      "stateMutability": "view",
      "type": "function"
    },
    {
      "inputs": [
        {
          "internalType": "uint256[]",
          "name": "_range",
          "type": "uint256[]"
        },
        {
          "internalType": "uint256",
          "name": "_idUser",
          "type": "uint256"
        },
        {
          "internalType": "uint256",
          "name": "_idCompany",
          "type": "uint256"
        },
        {
          "internalType": "enum stockenCapital.Category",
          "name": "_category",
          "type": "uint8"
        },
        {
          "internalType": "bytes",
          "name": "_info",
          "type": "bytes"
        },
        {
          "internalType": "uint256",
          "name": "_amount",
          "type": "uint256"
        }
      ],
      "name": "createNewActivo",
      "outputs": [
        {
          "internalType": "uint256",
          "name": "",
          "type": "uint256"
        }
      ],
      "stateMutability": "nonpayable",
      "type": "function"
    },
    {
      "inputs": [
        {
          "internalType": "uint256",
          "name": "_userID",
          "type": "uint256"
        },
        {
          "internalType": "bytes32",
          "name": "_hashDocument",
          "type": "bytes32"
        },
        {
          "internalType": "uint256",
          "name": "_idDocument",
          "type": "uint256"
        }
      ],
      "name": "createNewDocumento",
      "outputs": [
        {
          "internalType": "uint256",
          "name": "",
          "type": "uint256"
        }
      ],
      "stateMutability": "nonpayable",
      "type": "function"
    },
    {
      "inputs": [
        {
          "internalType": "uint256",
          "name": "",
          "type": "uint256"
        }
      ],
      "name": "documentos",
      "outputs": [
        {
          "internalType": "uint256",
          "name": "creationDate",
          "type": "uint256"
        },
        {
          "internalType": "uint256",
          "name": "id",
          "type": "uint256"
        },
        {
          "internalType": "uint256",
          "name": "userID",
          "type": "uint256"
        },
        {
          "internalType": "bytes32",
          "name": "hashDocument",
          "type": "bytes32"
        }
      ],
      "stateMutability": "view",
      "type": "function"
    },
    {
      "inputs": [
        {
          "internalType": "uint256",
          "name": "tokenId",
          "type": "uint256"
        }
      ],
      "name": "getActivo",
      "outputs": [
        {
          "components": [
            {
              "internalType": "address",
              "name": "owner",
              "type": "address"
            },
            {
              "internalType": "uint256",
              "name": "idUser",
              "type": "uint256"
            },
            {
              "internalType": "uint256",
              "name": "idCompany",
              "type": "uint256"
            },
            {
              "internalType": "uint256",
              "name": "amount",
              "type": "uint256"
            },
            {
              "internalType": "uint256[]",
              "name": "range",
              "type": "uint256[]"
            },
            {
              "internalType": "enum stockenCapital.Category",
              "name": "category",
              "type": "uint8"
            },
            {
              "internalType": "bytes",
              "name": "info",
              "type": "bytes"
            }
          ],
          "internalType": "struct stockenCapital.TokenData",
          "name": "",
          "type": "tuple"
        }
      ],
      "stateMutability": "view",
      "type": "function"
    },
    {
      "inputs": [
        {
          "internalType": "uint256",
          "name": "_userId",
          "type": "uint256"
        }
      ],
      "name": "getActivosByUser",
      "outputs": [
        {
          "components": [
            {
              "internalType": "address",
              "name": "owner",
              "type": "address"
            },
            {
              "internalType": "uint256",
              "name": "idUser",
              "type": "uint256"
            },
            {
              "internalType": "uint256",
              "name": "idCompany",
              "type": "uint256"
            },
            {
              "internalType": "uint256",
              "name": "amount",
              "type": "uint256"
            },
            {
              "internalType": "uint256[]",
              "name": "range",
              "type": "uint256[]"
            },
            {
              "internalType": "enum stockenCapital.Category",
              "name": "category",
              "type": "uint8"
            },
            {
              "internalType": "bytes",
              "name": "info",
              "type": "bytes"
            }
          ],
          "internalType": "struct stockenCapital.TokenData[]",
          "name": "",
          "type": "tuple[]"
        }
      ],
      "stateMutability": "view",
      "type": "function"
    },
    {
      "inputs": [
        {
          "internalType": "uint256",
          "name": "_documentoID",
          "type": "uint256"
        }
      ],
      "name": "getDocumento",
      "outputs": [
        {
          "components": [
            {
              "internalType": "uint256",
              "name": "creationDate",
              "type": "uint256"
            },
            {
              "internalType": "uint256",
              "name": "id",
              "type": "uint256"
            },
            {
              "internalType": "uint256",
              "name": "userID",
              "type": "uint256"
            },
            {
              "internalType": "bytes32",
              "name": "hashDocument",
              "type": "bytes32"
            }
          ],
          "internalType": "struct stockenCapital.Documento",
          "name": "",
          "type": "tuple"
        }
      ],
      "stateMutability": "view",
      "type": "function"
    },
    {
      "inputs": [
        {
          "internalType": "bytes32",
          "name": "role",
          "type": "bytes32"
        }
      ],
      "name": "getRoleAdmin",
      "outputs": [
        {
          "internalType": "bytes32",
          "name": "",
          "type": "bytes32"
        }
      ],
      "stateMutability": "view",
      "type": "function"
    },
    {
      "inputs": [
        {
          "internalType": "bytes32",
          "name": "role",
          "type": "bytes32"
        },
        {
          "internalType": "address",
          "name": "account",
          "type": "address"
        }
      ],
      "name": "grantRole",
      "outputs": [],
      "stateMutability": "nonpayable",
      "type": "function"
    },
    {
      "inputs": [
        {
          "internalType": "bytes32",
          "name": "role",
          "type": "bytes32"
        },
        {
          "internalType": "address",
          "name": "account",
          "type": "address"
        }
      ],
      "name": "hasRole",
      "outputs": [
        {
          "internalType": "bool",
          "name": "",
          "type": "bool"
        }
      ],
      "stateMutability": "view",
      "type": "function"
    },
    {
      "inputs": [],
      "name": "id",
      "outputs": [
        {
          "internalType": "uint256",
          "name": "",
          "type": "uint256"
        }
      ],
      "stateMutability": "view",
      "type": "function"
    },
    {
      "inputs": [
        {
          "internalType": "string",
          "name": "contractUri",
          "type": "string"
        }
      ],
      "name": "initialize",
      "outputs": [],
      "stateMutability": "nonpayable",
      "type": "function"
    },
    {
      "inputs": [
        {
          "internalType": "uint256",
          "name": "",
          "type": "uint256"
        }
      ],
      "name": "ipfsHashes",
      "outputs": [
        {
          "internalType": "string",
          "name": "",
          "type": "string"
        }
      ],
      "stateMutability": "view",
      "type": "function"
    },
    {
      "inputs": [
        {
          "internalType": "address",
          "name": "account",
          "type": "address"
        },
        {
          "internalType": "address",
          "name": "operator",
          "type": "address"
        }
      ],
      "name": "isApprovedForAll",
      "outputs": [
        {
          "internalType": "bool",
          "name": "",
          "type": "bool"
        }
      ],
      "stateMutability": "view",
      "type": "function"
    },
    {
      "inputs": [
        {
          "internalType": "address",
          "name": "_userAddress",
          "type": "address"
        },
        {
          "internalType": "uint256",
          "name": "_nftID",
          "type": "uint256"
        }
      ],
      "name": "mintActivo",
      "outputs": [],
      "stateMutability": "nonpayable",
      "type": "function"
    },
    {
      "inputs": [
        {
          "internalType": "uint256",
          "name": "",
          "type": "uint256"
        }
      ],
      "name": "minted",
      "outputs": [
        {
          "internalType": "bool",
          "name": "",
          "type": "bool"
        }
      ],
      "stateMutability": "view",
      "type": "function"
    },
    {
      "inputs": [
        {
          "internalType": "bytes32",
          "name": "role",
          "type": "bytes32"
        },
        {
          "internalType": "address",
          "name": "account",
          "type": "address"
        }
      ],
      "name": "renounceRole",
      "outputs": [],
      "stateMutability": "nonpayable",
      "type": "function"
    },
    {
      "inputs": [
        {
          "internalType": "bytes32",
          "name": "role",
          "type": "bytes32"
        },
        {
          "internalType": "address",
          "name": "account",
          "type": "address"
        }
      ],
      "name": "revokeRole",
      "outputs": [],
      "stateMutability": "nonpayable",
      "type": "function"
    },
    {
      "inputs": [
        {
          "internalType": "address",
          "name": "from",
          "type": "address"
        },
        {
          "internalType": "address",
          "name": "to",
          "type": "address"
        },
        {
          "internalType": "uint256[]",
          "name": "ids",
          "type": "uint256[]"
        },
        {
          "internalType": "uint256[]",
          "name": "amounts",
          "type": "uint256[]"
        },
        {
          "internalType": "bytes",
          "name": "data",
          "type": "bytes"
        }
      ],
      "name": "safeBatchTransferFrom",
      "outputs": [],
      "stateMutability": "nonpayable",
      "type": "function"
    },
    {
      "inputs": [
        {
          "internalType": "address",
          "name": "from",
          "type": "address"
        },
        {
          "internalType": "address",
          "name": "to",
          "type": "address"
        },
        {
          "internalType": "uint256",
          "name": "id",
          "type": "uint256"
        },
        {
          "internalType": "uint256",
          "name": "amount",
          "type": "uint256"
        },
        {
          "internalType": "bytes",
          "name": "data",
          "type": "bytes"
        }
      ],
      "name": "safeTransferFrom",
      "outputs": [],
      "stateMutability": "nonpayable",
      "type": "function"
    },
    {
      "inputs": [
        {
          "internalType": "address",
          "name": "operator",
          "type": "address"
        },
        {
          "internalType": "bool",
          "name": "approved",
          "type": "bool"
        }
      ],
      "name": "setApprovalForAll",
      "outputs": [],
      "stateMutability": "nonpayable",
      "type": "function"
    },
    {
      "inputs": [
        {
          "internalType": "bytes4",
          "name": "interfaceId",
          "type": "bytes4"
        }
      ],
      "name": "supportsInterface",
      "outputs": [
        {
          "internalType": "bool",
          "name": "",
          "type": "bool"
        }
      ],
      "stateMutability": "view",
      "type": "function"
    },
    {
      "inputs": [
        {
          "internalType": "uint256",
          "name": "",
          "type": "uint256"
        }
      ],
      "name": "uri",
      "outputs": [
        {
          "internalType": "string",
          "name": "",
          "type": "string"
        }
      ],
      "stateMutability": "view",
      "type": "function"
    }
  ],
  "transactionHash": "0xdb760031f47177469c3712677fecfabaea5cfaafce9f78d6b82821ec6ca20bac",
  "args": [],
  "numDeployments": 1,
  "solcInputHash": "94ae413d2a50a574eb99ef47a82eec05",
  "bytecode": "0x6080604052600160fb5534801561001557600080fd5b506132fa806100256000396000f3fe608060405234801561001057600080fd5b50600436106101e45760003560e01c80636b20c4541161010f578063bb674f20116100a2578063f1731bda11610071578063f1731bda146104f5578063f242432a14610508578063f5298aca1461051b578063f62d18881461052e57600080fd5b8063bb674f2014610448578063d547741f1461049e578063e8a3d485146104b1578063e985e9c5146104b957600080fd5b8063a217fddf116100de578063a217fddf14610411578063a22cb46514610419578063a4de2f5c1461042c578063af640d0f1461043f57600080fd5b80636b20c454146103815780637dc0bf3f14610394578063915985c8146103b857806391d14854146103fe57600080fd5b806326a1cc6b116101875780633d5e1930116101565780633d5e19301461030957806340881a921461032e5780634e1273f41461034e57806360ed51c31461036e57600080fd5b806326a1cc6b146102bd5780632eb2c2d6146102d05780632f2ff15d146102e357806336568abe146102f657600080fd5b80630655ea24116101c35780630655ea241461024757806308e528ac146102675780630e89341c1461027a578063248a9ca31461029a57600080fd5b8062fdd58e146101e957806301ffc9a71461020f578063053d7b9114610232575b600080fd5b6101fc6101f736600461288f565b610541565b6040519081526020015b60405180910390f35b61022261021d366004612a91565b6105d9565b6040519015158152602001610206565b61024561024036600461288f565b61061f565b005b61025a610255366004612a55565b6107bb565b604051610206919061302e565b61024561027536600461288f565b61092a565b61028d610288366004612a55565b6109a3565b6040516102069190612e87565b6101fc6102a8366004612a55565b60009081526065602052604090206001015490565b6101fc6102cb366004612b1c565b610a37565b6102456102de3660046126d0565b610aef565b6102456102f1366004612a6e565b610b3b565b610245610304366004612a6e565b610b65565b61031c610317366004612a55565b610be3565b60405161020696959493929190612da9565b61034161033c366004612a55565b610cb4565b6040516102069190612ded565b61036161035c3660046128ec565b610e6d565b6040516102069190612e4f565b61031c61037c366004612b48565b610f97565b61024561038f3660046127df565b611005565b6102226103a2366004612a55565b6101006020526000908152604090205460ff1681565b6103cb6103c6366004612a55565b611059565b60405161020691908151815260208083015190820152604080830151908201526060918201519181019190915260800190565b61022261040c366004612a6e565b6110cd565b6101fc600081565b610245610427366004612853565b6110f8565b61028d61043a366004612a55565b611103565b6101fc60fb5481565b61047e610456366004612a55565b6101016020526000908152604090208054600182015460028301546003909301549192909184565b604080519485526020850193909352918301526060820152608001610206565b6102456104ac366004612a6e565b61119d565b61028d6111c2565b6102226104c736600461269d565b6001600160a01b03918216600090815260986020908152604080832093909416825291909152205460ff1690565b6101fc6105033660046129bd565b611254565b61024561051636600461277a565b6114b8565b6102456105293660046128b9565b6114f9565b61024561053c366004612acb565b61154d565b60006001600160a01b0383166105b15760405162461bcd60e51b815260206004820152602a60248201527f455243313135353a2061646472657373207a65726f206973206e6f742061207660448201526930b634b21037bbb732b960b11b60648201526084015b60405180910390fd5b5060009081526097602090815260408083206001600160a01b03949094168352929052205490565b60006001600160e01b03198216636cdb3d1360e11b148061060a57506001600160e01b031982166303a24d0760e21b145b806106195750610619826116c7565b92915050565b61062a6000336110cd565b6106465760405162461bcd60e51b81526004016105a890612fb7565b6000818152610100602052604090205460ff16156106995760405162461bcd60e51b815260206004820152601060248201526f59612065737461206d696e746561646f60801b60448201526064016105a8565b600081815260ff6020526040902060038101546006909101805461074792859285926106c49061312d565b80601f01602080910402602001604051908101604052809291908181526020018280546106f09061312d565b801561073d5780601f106107125761010080835404028352916020019161073d565b820191906000526020600020905b81548152906001019060200180831161072057829003601f168201915b50505050506116fc565b600081815260ff602090815260409182902080546001600160a01b0319166001600160a01b03861690811782556003909101548351918252918101849052918201527f22dee40eeaaa5c0567108fb047950e05097a1c527f29b799b5fa5baf08de6d86906060015b60405180910390a15050565b6107c36123a8565b600082815260ff6020908152604091829020825160e08101845281546001600160a01b0316815260018201548184015260028201548185015260038201546060820152600482018054855181860281018601909652808652919492936080860193929083018282801561085557602002820191906000526020600020905b815481526020019060010190808311610841575b5050509183525050600582015460209091019060ff16600281111561087c5761087c6131c6565b600281111561088d5761088d6131c6565b81526020016006820180546108a19061312d565b80601f01602080910402602001604051908101604052809291908181526020018280546108cd9061312d565b801561091a5780601f106108ef5761010080835404028352916020019161091a565b820191906000526020600020905b8154815290600101906020018083116108fd57829003601f168201915b5050505050815250509050919050565b6109356000336110cd565b6109515760405162461bcd60e51b81526004016105a890612fb7565b6109648282670de0b6b3a76400006114f9565b604080516001600160a01b0384168152602081018390527f47fcf018359677711689032b13309287d4aa38039085d16a7d883068a788587b91016107af565b6060609980546109b29061312d565b80601f01602080910402602001604051908101604052809291908181526020018280546109de9061312d565b8015610a2b5780601f10610a0057610100808354040283529160200191610a2b565b820191906000526020600020905b815481529060010190602001808311610a0e57829003601f168201915b50505050509050919050565b6000610a4381336110cd565b610a5f5760405162461bcd60e51b81526004016105a890612fb7565b604080516080810182524281526020808201858152828401888152606080850189815260008981526101018652879020955186559251600186015590516002850155905160039093019290925582518781529081018590529182018590527f98ca95a802882a2ebdffecf6246b6ec26f843f76296aa72b000cd0cb5864d528910160405180910390a15092915050565b6001600160a01b038516331480610b0b5750610b0b85336104c7565b610b275760405162461bcd60e51b81526004016105a890612f26565b610b348585858585611812565b5050505050565b600082815260656020526040902060010154610b5681611a32565b610b608383611a3f565b505050565b6001600160a01b0381163314610bd55760405162461bcd60e51b815260206004820152602f60248201527f416363657373436f6e74726f6c3a2063616e206f6e6c792072656e6f756e636560448201526e103937b632b9903337b91039b2b63360891b60648201526084016105a8565b610bdf8282611ac5565b5050565b60ff602081905260009182526040909120805460018201546002830154600384015460058501546006860180546001600160a01b0390961697949693959294919091169291610c319061312d565b80601f0160208091040260200160405190810160405280929190818152602001828054610c5d9061312d565b8015610caa5780601f10610c7f57610100808354040283529160200191610caa565b820191906000526020600020905b815481529060010190602001808311610c8d57829003601f168201915b5050505050905086565b60606101026000838152602001908152602001600020805480602002602001604051908101604052809291908181526020016000905b82821015610e625760008481526020908190206040805160e0810182526007860290920180546001600160a01b031683526001810154838501526002810154838301526003810154606084015260048101805483518187028101870190945280845293949193608086019392830182828015610d8557602002820191906000526020600020905b815481526020019060010190808311610d71575b5050509183525050600582015460209091019060ff166002811115610dac57610dac6131c6565b6002811115610dbd57610dbd6131c6565b8152602001600682018054610dd19061312d565b80601f0160208091040260200160405190810160405280929190818152602001828054610dfd9061312d565b8015610e4a5780601f10610e1f57610100808354040283529160200191610e4a565b820191906000526020600020905b815481529060010190602001808311610e2d57829003601f168201915b50505050508152505081526020019060010190610cea565b505050509050919050565b60608151835114610ed25760405162461bcd60e51b815260206004820152602960248201527f455243313135353a206163636f756e747320616e6420696473206c656e677468604482015268040dad2e6dac2e8c6d60bb1b60648201526084016105a8565b6000835167ffffffffffffffff811115610eee57610eee6131f2565b604051908082528060200260200182016040528015610f17578160200160208202803683370190505b50905060005b8451811015610f8f57610f62858281518110610f3b57610f3b6131dc565b6020026020010151858381518110610f5557610f556131dc565b6020026020010151610541565b828281518110610f7457610f746131dc565b6020908102919091010152610f8881613195565b9050610f1d565b509392505050565b6101026020528160005260406000208181548110610fb457600080fd5b60009182526020909120600790910201805460018201546002830154600384015460058501546006860180546001600160a01b0390961698509396509194909360ff909216929091610c319061312d565b6001600160a01b038316331480611021575061102183336104c7565b8061103257506110326000336110cd565b61104e5760405162461bcd60e51b81526004016105a890612f26565b610b60838383611b2c565b6110876040518060800160405280600081526020016000815260200160008152602001600080191681525090565b5060009081526101016020908152604091829020825160808101845281548152600182015492810192909252600281015492820192909252600390910154606082015290565b60009182526065602090815260408084206001600160a01b0393909316845291905290205460ff1690565b610bdf338383611cbb565b60fe602052600090815260409020805461111c9061312d565b80601f01602080910402602001604051908101604052809291908181526020018280546111489061312d565b80156111955780601f1061116a57610100808354040283529160200191611195565b820191906000526020600020905b81548152906001019060200180831161117857829003601f168201915b505050505081565b6000828152606560205260409020600101546111b881611a32565b610b608383611ac5565b606060fd80546111d19061312d565b80601f01602080910402602001604051908101604052809291908181526020018280546111fd9061312d565b801561124a5780601f1061121f5761010080835404028352916020019161124a565b820191906000526020600020905b81548152906001019060200180831161122d57829003601f168201915b5050505050905090565b600061126081336110cd565b61127c5760405162461bcd60e51b81526004016105a890612fb7565b6040518060e00160405280306001600160a01b031681526020018781526020018681526020018381526020018881526020018560028111156112c0576112c06131c6565b8152602090810185905260fb54600090815260ff8252604090819020835181546001600160a01b0319166001600160a01b039091161781558383015160018201559083015160028201556060830151600382015560808301518051919261132f926004850192909101906123ff565b5060a082015160058201805460ff19166001836002811115611353576113536131c6565b021790555060c0820151805161137391600684019160209091019061244a565b50505060008681526101026020908152604080832060fb54845260ff835290832081546001818101845592855292909320835460079093020180546001600160a01b0319166001600160a01b0390931692909217825580830154908201556002808301549082015560038083015490820155600480830180546113f992840191906124bd565b50600582810154908201805460ff9092169160ff19166001836002811115611423576114236131c6565b0217905550600682018160060190805461143c9061312d565b6114479291906124fd565b5050507f7758b1af4d5c9c7f48f2730adca40c162af3465b187ade7954fa405fb03f064986848660fb546040516114819493929190613041565b60405180910390a160fb805490600061149983613195565b9190505550600160fb546114ad91906130d3565b979650505050505050565b60405162461bcd60e51b815260206004820152601660248201527527379039b290383ab2b232903a3930b739b332b934b960511b60448201526064016105a8565b6001600160a01b038316331480611515575061151583336104c7565b8061152657506115266000336110cd565b6115425760405162461bcd60e51b81526004016105a890612f26565b610b60838383611d9c565b600054610100900460ff161580801561156d5750600054600160ff909116105b806115875750303b158015611587575060005460ff166001145b6115ea5760405162461bcd60e51b815260206004820152602e60248201527f496e697469616c697a61626c653a20636f6e747261637420697320616c72656160448201526d191e481a5b9a5d1a585b1a5e995960921b60648201526084016105a8565b6000805460ff19166001179055801561160d576000805461ff0019166101001790555b611618600033611ea3565b60408051808201909152600780825266697066733a2f2f60c81b60209092019182526116469160fc9161244a565b5061164f611ead565b816040516020016116609190612c6d565b60405160208183030381529060405260fd908051906020019061168492919061244a565b508015610bdf576000805461ff0019169055604051600181527f7f26b83ff96e1f2b6a682f133852f6798a09c465da95921460cefb3847402498906020016107af565b60006001600160e01b03198216637965db0b60e01b148061061957506301ffc9a760e01b6001600160e01b0319831614610619565b6001600160a01b03841661175c5760405162461bcd60e51b815260206004820152602160248201527f455243313135353a206d696e7420746f20746865207a65726f206164647265736044820152607360f81b60648201526084016105a8565b33600061176885611f1a565b9050600061177585611f1a565b905060008681526097602090815260408083206001600160a01b038b168452909152812080548792906117a990849061309c565b909155505060408051878152602081018790526001600160a01b03808a1692600092918716917fc3d58168c5ae7397731d063d5bbf3d657854427343f4c083240f7aacaa2d0f62910160405180910390a461180983600089898989611f65565b50505050505050565b81518351146118335760405162461bcd60e51b81526004016105a890612fe6565b6001600160a01b0384166118975760405162461bcd60e51b815260206004820152602560248201527f455243313135353a207472616e7366657220746f20746865207a65726f206164604482015264647265737360d81b60648201526084016105a8565b3360005b84518110156119c45760008582815181106118b8576118b86131dc565b6020026020010151905060008583815181106118d6576118d66131dc565b60209081029190910181015160008481526097835260408082206001600160a01b038e16835290935291909120549091508181101561196a5760405162461bcd60e51b815260206004820152602a60248201527f455243313135353a20696e73756666696369656e742062616c616e636520666f60448201526939103a3930b739b332b960b11b60648201526084016105a8565b60008381526097602090815260408083206001600160a01b038e8116855292528083208585039055908b168252812080548492906119a990849061309c565b92505081905550505050806119bd90613195565b905061189b565b50846001600160a01b0316866001600160a01b0316826001600160a01b03167f4a39dc06d4c0dbc64b70af90fd698a233a518aa5d07e595d983b8c0526c8f7fb8787604051611a14929190612e62565b60405180910390a4611a2a8187878787876120d0565b505050505050565b611a3c813361219a565b50565b611a4982826110cd565b610bdf5760008281526065602090815260408083206001600160a01b03851684529091529020805460ff19166001179055611a813390565b6001600160a01b0316816001600160a01b0316837f2f8788117e7eff1d82e926ec794901d17c78024a50270940304540a733656f0d60405160405180910390a45050565b611acf82826110cd565b15610bdf5760008281526065602090815260408083206001600160a01b0385168085529252808320805460ff1916905551339285917ff6391f5c32d9c69d2a47ea670b442974b53935d1edc7fd64eb21e047a839171b9190a45050565b6001600160a01b038316611b525760405162461bcd60e51b81526004016105a890612f74565b8051825114611b735760405162461bcd60e51b81526004016105a890612fe6565b604080516020810190915260009081905233905b8351811015611c4c576000848281518110611ba457611ba46131dc565b602002602001015190506000848381518110611bc257611bc26131dc565b60209081029190910181015160008481526097835260408082206001600160a01b038c168352909352919091205490915081811015611c135760405162461bcd60e51b81526004016105a890612ee2565b60009283526097602090815260408085206001600160a01b038b1686529091529092209103905580611c4481613195565b915050611b87565b5060006001600160a01b0316846001600160a01b0316826001600160a01b03167f4a39dc06d4c0dbc64b70af90fd698a233a518aa5d07e595d983b8c0526c8f7fb8686604051611c9d929190612e62565b60405180910390a46040805160208101909152600090525b50505050565b816001600160a01b0316836001600160a01b03161415611d2f5760405162461bcd60e51b815260206004820152602960248201527f455243313135353a2073657474696e6720617070726f76616c20737461747573604482015268103337b91039b2b63360b91b60648201526084016105a8565b6001600160a01b03838116600081815260986020908152604080832094871680845294825291829020805460ff191686151590811790915591519182527f17307eab39ab6107e8899845ad3d59bd9653f200f220920489ca2b5937696c31910160405180910390a3505050565b6001600160a01b038316611dc25760405162461bcd60e51b81526004016105a890612f74565b336000611dce84611f1a565b90506000611ddb84611f1a565b6040805160208082018352600091829052888252609781528282206001600160a01b038b1683529052205490915084811015611e295760405162461bcd60e51b81526004016105a890612ee2565b60008681526097602090815260408083206001600160a01b038b81168086529184528285208a8703905582518b81529384018a90529092908816917fc3d58168c5ae7397731d063d5bbf3d657854427343f4c083240f7aacaa2d0f62910160405180910390a4604080516020810190915260009052611809565b610bdf8282611a3f565b600054610100900460ff16611f185760405162461bcd60e51b815260206004820152602b60248201527f496e697469616c697a61626c653a20636f6e7472616374206973206e6f74206960448201526a6e697469616c697a696e6760a81b60648201526084016105a8565b565b60408051600180825281830190925260609160009190602080830190803683370190505090508281600081518110611f5457611f546131dc565b602090810291909101015292915050565b6001600160a01b0384163b15611a2a5760405163f23a6e6160e01b81526001600160a01b0385169063f23a6e6190611fa99089908990889088908890600401612d6f565b602060405180830381600087803b158015611fc357600080fd5b505af1925050508015611ff3575060408051601f3d908101601f19168201909252611ff091810190612aae565b60015b6120a057611fff613208565b806308c379a014156120395750612014613224565b8061201f575061203b565b8060405162461bcd60e51b81526004016105a89190612e87565b505b60405162461bcd60e51b815260206004820152603460248201527f455243313135353a207472616e7366657220746f206e6f6e2d455243313135356044820152732932b1b2b4bb32b91034b6b83632b6b2b73a32b960611b60648201526084016105a8565b6001600160e01b0319811663f23a6e6160e01b146118095760405162461bcd60e51b81526004016105a890612e9a565b6001600160a01b0384163b15611a2a5760405163bc197c8160e01b81526001600160a01b0385169063bc197c81906121149089908990889088908890600401612d11565b602060405180830381600087803b15801561212e57600080fd5b505af192505050801561215e575060408051601f3d908101601f1916820190925261215b91810190612aae565b60015b61216a57611fff613208565b6001600160e01b0319811663bc197c8160e01b146118095760405162461bcd60e51b81526004016105a890612e9a565b6121a482826110cd565b610bdf576121b1816121f3565b6121bc836020612205565b6040516020016121cd929190612c9c565b60408051601f198184030181529082905262461bcd60e51b82526105a891600401612e87565b60606106196001600160a01b03831660145b606060006122148360026130b4565b61221f90600261309c565b67ffffffffffffffff811115612237576122376131f2565b6040519080825280601f01601f191660200182016040528015612261576020820181803683370190505b509050600360fc1b8160008151811061227c5761227c6131dc565b60200101906001600160f81b031916908160001a905350600f60fb1b816001815181106122ab576122ab6131dc565b60200101906001600160f81b031916908160001a90535060006122cf8460026130b4565b6122da90600161309c565b90505b6001811115612352576f181899199a1a9b1b9c1cb0b131b232b360811b85600f166010811061230e5761230e6131dc565b1a60f81b828281518110612324576123246131dc565b60200101906001600160f81b031916908160001a90535060049490941c9361234b81613116565b90506122dd565b5083156123a15760405162461bcd60e51b815260206004820181905260248201527f537472696e67733a20686578206c656e67746820696e73756666696369656e7460448201526064016105a8565b9392505050565b6040518060e0016040528060006001600160a01b0316815260200160008152602001600081526020016000815260200160608152602001600060028111156123f2576123f26131c6565b8152602001606081525090565b82805482825590600052602060002090810192821561243a579160200282015b8281111561243a57825182559160200191906001019061241f565b50612446929150612577565b5090565b8280546124569061312d565b90600052602060002090601f016020900481019282612478576000855561243a565b82601f1061249157805160ff191683800117855561243a565b8280016001018555821561243a579182018281111561243a57825182559160200191906001019061241f565b82805482825590600052602060002090810192821561243a5760005260206000209182015b8281111561243a5782548255916001019190600101906124e2565b8280546125099061312d565b90600052602060002090601f01602090048101928261252b576000855561243a565b82601f1061253c578054855561243a565b8280016001018555821561243a57600052602060002091601f016020900482018281111561243a5782548255916001019190600101906124e2565b5b808211156124465760008155600101612578565b600067ffffffffffffffff8311156125a6576125a66131f2565b6040516125bd601f8501601f191660200182613168565b8091508381528484840111156125d257600080fd5b83836020830137600060208583010152509392505050565b80356001600160a01b038116811461260157600080fd5b919050565b600082601f83011261261757600080fd5b8135602061262482613078565b6040516126318282613168565b8381528281019150858301600585901b8701840188101561265157600080fd5b60005b8581101561267057813584529284019290840190600101612654565b5090979650505050505050565b600082601f83011261268e57600080fd5b6123a18383356020850161258c565b600080604083850312156126b057600080fd5b6126b9836125ea565b91506126c7602084016125ea565b90509250929050565b600080600080600060a086880312156126e857600080fd5b6126f1866125ea565b94506126ff602087016125ea565b9350604086013567ffffffffffffffff8082111561271c57600080fd5b61272889838a01612606565b9450606088013591508082111561273e57600080fd5b61274a89838a01612606565b9350608088013591508082111561276057600080fd5b5061276d8882890161267d565b9150509295509295909350565b600080600080600060a0868803121561279257600080fd5b61279b866125ea565b94506127a9602087016125ea565b93506040860135925060608601359150608086013567ffffffffffffffff8111156127d357600080fd5b61276d8882890161267d565b6000806000606084860312156127f457600080fd5b6127fd846125ea565b9250602084013567ffffffffffffffff8082111561281a57600080fd5b61282687838801612606565b9350604086013591508082111561283c57600080fd5b5061284986828701612606565b9150509250925092565b6000806040838503121561286657600080fd5b61286f836125ea565b91506020830135801515811461288457600080fd5b809150509250929050565b600080604083850312156128a257600080fd5b6128ab836125ea565b946020939093013593505050565b6000806000606084860312156128ce57600080fd5b6128d7846125ea565b95602085013595506040909401359392505050565b600080604083850312156128ff57600080fd5b823567ffffffffffffffff8082111561291757600080fd5b818501915085601f83011261292b57600080fd5b8135602061293882613078565b6040516129458282613168565b8381528281019150858301600585901b870184018b101561296557600080fd5b600096505b8487101561298f5761297b816125ea565b83526001969096019591830191830161296a565b50965050860135925050808211156129a657600080fd5b506129b385828601612606565b9150509250929050565b60008060008060008060c087890312156129d657600080fd5b863567ffffffffffffffff808211156129ee57600080fd5b6129fa8a838b01612606565b975060208901359650604089013595506060890135915060038210612a1e57600080fd5b90935060808801359080821115612a3457600080fd5b50612a4189828a0161267d565b92505060a087013590509295509295509295565b600060208284031215612a6757600080fd5b5035919050565b60008060408385031215612a8157600080fd5b823591506126c7602084016125ea565b600060208284031215612aa357600080fd5b81356123a1816132ae565b600060208284031215612ac057600080fd5b81516123a1816132ae565b600060208284031215612add57600080fd5b813567ffffffffffffffff811115612af457600080fd5b8201601f81018413612b0557600080fd5b612b148482356020840161258c565b949350505050565b600080600060608486031215612b3157600080fd5b505081359360208301359350604090920135919050565b60008060408385031215612b5b57600080fd5b50508035926020909101359150565b600081518084526020808501945080840160005b83811015612b9a57815187529582019590820190600101612b7e565b509495945050505050565b60008151808452612bbd8160208601602086016130ea565b601f01601f19169290920160200192915050565b60038110612bef57634e487b7160e01b600052602160045260246000fd5b9052565b60018060a01b0381511682526020810151602083015260408101516040830152606081015160608301526000608082015160e06080850152612c3860e0850182612b6a565b905060a0830151612c4c60a0860182612bd1565b5060c083015184820360c0860152612c648282612ba5565b95945050505050565b66697066733a2f2f60c81b815260008251612c8f8160078501602087016130ea565b9190910160070192915050565b7f416363657373436f6e74726f6c3a206163636f756e7420000000000000000000815260008351612cd48160178501602088016130ea565b7001034b99036b4b9b9b4b733903937b6329607d1b6017918401918201528351612d058160288401602088016130ea565b01602801949350505050565b6001600160a01b0386811682528516602082015260a060408201819052600090612d3d90830186612b6a565b8281036060840152612d4f8186612b6a565b90508281036080840152612d638185612ba5565b98975050505050505050565b6001600160a01b03868116825285166020820152604081018490526060810183905260a0608082018190526000906114ad90830184612ba5565b6001600160a01b0387168152602081018690526040810185905260608101849052612dd76080820184612bd1565b60c060a08201526000612d6360c0830184612ba5565b6000602080830181845280855180835260408601915060408160051b870101925083870160005b82811015612e4257603f19888603018452612e30858351612bf3565b94509285019290850190600101612e14565b5092979650505050505050565b6020815260006123a16020830184612b6a565b604081526000612e756040830185612b6a565b8281036020840152612c648185612b6a565b6020815260006123a16020830184612ba5565b60208082526028908201527f455243313135353a204552433131353552656365697665722072656a656374656040820152676420746f6b656e7360c01b606082015260800190565b60208082526024908201527f455243313135353a206275726e20616d6f756e7420657863656564732062616c604082015263616e636560e01b606082015260800190565b6020808252602e908201527f455243313135353a2063616c6c6572206973206e6f7420746f6b656e206f776e60408201526d195c881bdc88185c1c1c9bdd995960921b606082015260800190565b60208082526023908201527f455243313135353a206275726e2066726f6d20746865207a65726f206164647260408201526265737360e81b606082015260800190565b6020808252601590820152744f6e6c79206f776e65722063616e2061636365737360581b604082015260600190565b60208082526028908201527f455243313135353a2069647320616e6420616d6f756e7473206c656e677468206040820152670dad2e6dac2e8c6d60c31b606082015260800190565b6020815260006123a16020830184612bf3565b84815260806020820152600061305a6080830186612ba5565b90506130696040830185612bd1565b82606083015295945050505050565b600067ffffffffffffffff821115613092576130926131f2565b5060051b60200190565b600082198211156130af576130af6131b0565b500190565b60008160001904831182151516156130ce576130ce6131b0565b500290565b6000828210156130e5576130e56131b0565b500390565b60005b838110156131055781810151838201526020016130ed565b83811115611cb55750506000910152565b600081613125576131256131b0565b506000190190565b600181811c9082168061314157607f821691505b6020821081141561316257634e487b7160e01b600052602260045260246000fd5b50919050565b601f8201601f1916810167ffffffffffffffff8111828210171561318e5761318e6131f2565b6040525050565b60006000198214156131a9576131a96131b0565b5060010190565b634e487b7160e01b600052601160045260246000fd5b634e487b7160e01b600052602160045260246000fd5b634e487b7160e01b600052603260045260246000fd5b634e487b7160e01b600052604160045260246000fd5b600060033d11156132215760046000803e5060005160e01c5b90565b600060443d10156132325790565b6040516003193d81016004833e81513d67ffffffffffffffff816024840111818411171561326257505050505090565b828501915081518181111561327a5750505050505090565b843d87010160208285010111156132945750505050505090565b6132a360208286010187613168565b509095945050505050565b6001600160e01b031981168114611a3c57600080fdfea264697066735822122004ce10f4a7c37fadaed95cf04deaeb28fd7ef6f1d7e7be28d809a5d3638b657664736f6c63430008070033",
  "devdoc": {
    "kind": "dev",
    "methods": {
      "balanceOf(address,uint256)": {
        "details": "See {IERC1155-balanceOf}. Requirements: - `account` cannot be the zero address."
      },
      "balanceOfBatch(address[],uint256[])": {
        "details": "See {IERC1155-balanceOfBatch}. Requirements: - `accounts` and `ids` must have the same length."
      },
      "createNewActivo(uint256[],uint256,uint256,uint8,bytes,uint256)": {
        "details": "user creates new NFTs"
      },
      "createNewDocumento(uint256,bytes32,uint256)": {
        "details": "user creates new NFTs"
      },
      "getRoleAdmin(bytes32)": {
        "details": "Returns the admin role that controls `role`. See {grantRole} and {revokeRole}. To change a role's admin, use {_setRoleAdmin}."
      },
      "grantRole(bytes32,address)": {
        "details": "Grants `role` to `account`. If `account` had not been already granted `role`, emits a {RoleGranted} event. Requirements: - the caller must have ``role``'s admin role. May emit a {RoleGranted} event."
      },
      "hasRole(bytes32,address)": {
        "details": "Returns `true` if `account` has been granted `role`."
      },
      "isApprovedForAll(address,address)": {
        "details": "See {IERC1155-isApprovedForAll}."
      },
      "renounceRole(bytes32,address)": {
        "details": "Revokes `role` from the calling account. Roles are often managed via {grantRole} and {revokeRole}: this function's purpose is to provide a mechanism for accounts to lose their privileges if they are compromised (such as when a trusted device is misplaced). If the calling account had been revoked `role`, emits a {RoleRevoked} event. Requirements: - the caller must be `account`. May emit a {RoleRevoked} event."
      },
      "revokeRole(bytes32,address)": {
        "details": "Revokes `role` from `account`. If `account` had been granted `role`, emits a {RoleRevoked} event. Requirements: - the caller must have ``role``'s admin role. May emit a {RoleRevoked} event."
      },
      "safeBatchTransferFrom(address,address,uint256[],uint256[],bytes)": {
        "details": "See {IERC1155-safeBatchTransferFrom}."
      },
      "safeTransferFrom(address,address,uint256,uint256,bytes)": {
        "details": "See {IERC1155-safeTransferFrom}."
      },
      "setApprovalForAll(address,bool)": {
        "details": "See {IERC1155-setApprovalForAll}."
      },
      "supportsInterface(bytes4)": {
        "details": "See {IERC165-supportsInterface}."
      },
      "uri(uint256)": {
        "details": "See {IERC1155MetadataURI-uri}. This implementation returns the same URI for *all* token types. It relies on the token type ID substitution mechanism https://eips.ethereum.org/EIPS/eip-1155#metadata[defined in the EIP]. Clients calling this function must replace the `\\{id\\}` substring with the actual token type ID."
      }
    },
    "version": 1
  },
  "userdoc": {
    "kind": "user",
    "methods": {
      "activosByUser(uint256,uint256)": {
        "notice": "nftId --> los activos"
      },
      "burnIt(address,uint256)": {
        "notice": "Para que esto funcione hay que alterar burn en ERC1155BurnableUpgradeble (31) y permitir al owner para que no pueda trasnferirlo alterar ERC1155Upgradeable en (120)"
      }
    },
    "version": 1
  },
  "storageLayout": {
    "storage": [
      {
        "astId": 415,
        "contract": "contracts/stockenCapital.sol:stockenCapital",
        "label": "_initialized",
        "offset": 0,
        "slot": "0",
        "type": "t_uint8"
      },
      {
        "astId": 418,
        "contract": "contracts/stockenCapital.sol:stockenCapital",
        "label": "_initializing",
        "offset": 1,
        "slot": "0",
        "type": "t_bool"
      },
      {
        "astId": 2483,
        "contract": "contracts/stockenCapital.sol:stockenCapital",
        "label": "__gap",
        "offset": 0,
        "slot": "1",
        "type": "t_array(t_uint256)50_storage"
      },
      {
        "astId": 2756,
        "contract": "contracts/stockenCapital.sol:stockenCapital",
        "label": "__gap",
        "offset": 0,
        "slot": "51",
        "type": "t_array(t_uint256)50_storage"
      },
      {
        "astId": 39,
        "contract": "contracts/stockenCapital.sol:stockenCapital",
        "label": "_roles",
        "offset": 0,
        "slot": "101",
        "type": "t_mapping(t_bytes32,t_struct(RoleData)34_storage)"
      },
      {
        "astId": 334,
        "contract": "contracts/stockenCapital.sol:stockenCapital",
        "label": "__gap",
        "offset": 0,
        "slot": "102",
        "type": "t_array(t_uint256)49_storage"
      },
      {
        "astId": 609,
        "contract": "contracts/stockenCapital.sol:stockenCapital",
        "label": "_balances",
        "offset": 0,
        "slot": "151",
        "type": "t_mapping(t_uint256,t_mapping(t_address,t_uint256))"
      },
      {
        "astId": 615,
        "contract": "contracts/stockenCapital.sol:stockenCapital",
        "label": "_operatorApprovals",
        "offset": 0,
        "slot": "152",
        "type": "t_mapping(t_address,t_mapping(t_address,t_bool))"
      },
      {
        "astId": 617,
        "contract": "contracts/stockenCapital.sol:stockenCapital",
        "label": "_uri",
        "offset": 0,
        "slot": "153",
        "type": "t_string_storage"
      },
      {
        "astId": 1832,
        "contract": "contracts/stockenCapital.sol:stockenCapital",
        "label": "__gap",
        "offset": 0,
        "slot": "154",
        "type": "t_array(t_uint256)47_storage"
      },
      {
        "astId": 2096,
        "contract": "contracts/stockenCapital.sol:stockenCapital",
        "label": "__gap",
        "offset": 0,
        "slot": "201",
        "type": "t_array(t_uint256)50_storage"
      },
      {
        "astId": 3752,
        "contract": "contracts/stockenCapital.sol:stockenCapital",
        "label": "id",
        "offset": 0,
        "slot": "251",
        "type": "t_uint256"
      },
      {
        "astId": 3754,
        "contract": "contracts/stockenCapital.sol:stockenCapital",
        "label": "_baseUri",
        "offset": 0,
        "slot": "252",
        "type": "t_string_storage"
      },
      {
        "astId": 3756,
        "contract": "contracts/stockenCapital.sol:stockenCapital",
        "label": "_contractUri",
        "offset": 0,
        "slot": "253",
        "type": "t_string_storage"
      },
      {
        "astId": 3790,
        "contract": "contracts/stockenCapital.sol:stockenCapital",
        "label": "ipfsHashes",
        "offset": 0,
        "slot": "254",
        "type": "t_mapping(t_uint256,t_string_storage)"
      },
      {
        "astId": 3795,
        "contract": "contracts/stockenCapital.sol:stockenCapital",
        "label": "activos",
        "offset": 0,
        "slot": "255",
        "type": "t_mapping(t_uint256,t_struct(TokenData)3782_storage)"
      },
      {
        "astId": 3799,
        "contract": "contracts/stockenCapital.sol:stockenCapital",
        "label": "minted",
        "offset": 0,
        "slot": "256",
        "type": "t_mapping(t_uint256,t_bool)"
      },
      {
        "astId": 3804,
        "contract": "contracts/stockenCapital.sol:stockenCapital",
        "label": "documentos",
        "offset": 0,
        "slot": "257",
        "type": "t_mapping(t_uint256,t_struct(Documento)3765_storage)"
      },
      {
        "astId": 3811,
        "contract": "contracts/stockenCapital.sol:stockenCapital",
        "label": "activosByUser",
        "offset": 0,
        "slot": "258",
        "type": "t_mapping(t_uint256,t_array(t_struct(TokenData)3782_storage)dyn_storage)"
      }
    ],
    "types": {
      "t_address": {
        "encoding": "inplace",
        "label": "address",
        "numberOfBytes": "20"
      },
      "t_array(t_struct(TokenData)3782_storage)dyn_storage": {
        "base": "t_struct(TokenData)3782_storage",
        "encoding": "dynamic_array",
        "label": "struct stockenCapital.TokenData[]",
        "numberOfBytes": "32"
      },
      "t_array(t_uint256)47_storage": {
        "base": "t_uint256",
        "encoding": "inplace",
        "label": "uint256[47]",
        "numberOfBytes": "1504"
      },
      "t_array(t_uint256)49_storage": {
        "base": "t_uint256",
        "encoding": "inplace",
        "label": "uint256[49]",
        "numberOfBytes": "1568"
      },
      "t_array(t_uint256)50_storage": {
        "base": "t_uint256",
        "encoding": "inplace",
        "label": "uint256[50]",
        "numberOfBytes": "1600"
      },
      "t_array(t_uint256)dyn_storage": {
        "base": "t_uint256",
        "encoding": "dynamic_array",
        "label": "uint256[]",
        "numberOfBytes": "32"
      },
      "t_bool": {
        "encoding": "inplace",
        "label": "bool",
        "numberOfBytes": "1"
      },
      "t_bytes32": {
        "encoding": "inplace",
        "label": "bytes32",
        "numberOfBytes": "32"
      },
      "t_bytes_storage": {
        "encoding": "bytes",
        "label": "bytes",
        "numberOfBytes": "32"
      },
      "t_enum(Category)3786": {
        "encoding": "inplace",
        "label": "enum stockenCapital.Category",
        "numberOfBytes": "1"
      },
      "t_mapping(t_address,t_bool)": {
        "encoding": "mapping",
        "key": "t_address",
        "label": "mapping(address => bool)",
        "numberOfBytes": "32",
        "value": "t_bool"
      },
      "t_mapping(t_address,t_mapping(t_address,t_bool))": {
        "encoding": "mapping",
        "key": "t_address",
        "label": "mapping(address => mapping(address => bool))",
        "numberOfBytes": "32",
        "value": "t_mapping(t_address,t_bool)"
      },
      "t_mapping(t_address,t_uint256)": {
        "encoding": "mapping",
        "key": "t_address",
        "label": "mapping(address => uint256)",
        "numberOfBytes": "32",
        "value": "t_uint256"
      },
      "t_mapping(t_bytes32,t_struct(RoleData)34_storage)": {
        "encoding": "mapping",
        "key": "t_bytes32",
        "label": "mapping(bytes32 => struct AccessControlUpgradeable.RoleData)",
        "numberOfBytes": "32",
        "value": "t_struct(RoleData)34_storage"
      },
      "t_mapping(t_uint256,t_array(t_struct(TokenData)3782_storage)dyn_storage)": {
        "encoding": "mapping",
        "key": "t_uint256",
        "label": "mapping(uint256 => struct stockenCapital.TokenData[])",
        "numberOfBytes": "32",
        "value": "t_array(t_struct(TokenData)3782_storage)dyn_storage"
      },
      "t_mapping(t_uint256,t_bool)": {
        "encoding": "mapping",
        "key": "t_uint256",
        "label": "mapping(uint256 => bool)",
        "numberOfBytes": "32",
        "value": "t_bool"
      },
      "t_mapping(t_uint256,t_mapping(t_address,t_uint256))": {
        "encoding": "mapping",
        "key": "t_uint256",
        "label": "mapping(uint256 => mapping(address => uint256))",
        "numberOfBytes": "32",
        "value": "t_mapping(t_address,t_uint256)"
      },
      "t_mapping(t_uint256,t_string_storage)": {
        "encoding": "mapping",
        "key": "t_uint256",
        "label": "mapping(uint256 => string)",
        "numberOfBytes": "32",
        "value": "t_string_storage"
      },
      "t_mapping(t_uint256,t_struct(Documento)3765_storage)": {
        "encoding": "mapping",
        "key": "t_uint256",
        "label": "mapping(uint256 => struct stockenCapital.Documento)",
        "numberOfBytes": "32",
        "value": "t_struct(Documento)3765_storage"
      },
      "t_mapping(t_uint256,t_struct(TokenData)3782_storage)": {
        "encoding": "mapping",
        "key": "t_uint256",
        "label": "mapping(uint256 => struct stockenCapital.TokenData)",
        "numberOfBytes": "32",
        "value": "t_struct(TokenData)3782_storage"
      },
      "t_string_storage": {
        "encoding": "bytes",
        "label": "string",
        "numberOfBytes": "32"
      },
      "t_struct(Documento)3765_storage": {
        "encoding": "inplace",
        "label": "struct stockenCapital.Documento",
        "members": [
          {
            "astId": 3758,
            "contract": "contracts/stockenCapital.sol:stockenCapital",
            "label": "creationDate",
            "offset": 0,
            "slot": "0",
            "type": "t_uint256"
          },
          {
            "astId": 3760,
            "contract": "contracts/stockenCapital.sol:stockenCapital",
            "label": "id",
            "offset": 0,
            "slot": "1",
            "type": "t_uint256"
          },
          {
            "astId": 3762,
            "contract": "contracts/stockenCapital.sol:stockenCapital",
            "label": "userID",
            "offset": 0,
            "slot": "2",
            "type": "t_uint256"
          },
          {
            "astId": 3764,
            "contract": "contracts/stockenCapital.sol:stockenCapital",
            "label": "hashDocument",
            "offset": 0,
            "slot": "3",
            "type": "t_bytes32"
          }
        ],
        "numberOfBytes": "128"
      },
      "t_struct(RoleData)34_storage": {
        "encoding": "inplace",
        "label": "struct AccessControlUpgradeable.RoleData",
        "members": [
          {
            "astId": 31,
            "contract": "contracts/stockenCapital.sol:stockenCapital",
            "label": "members",
            "offset": 0,
            "slot": "0",
            "type": "t_mapping(t_address,t_bool)"
          },
          {
            "astId": 33,
            "contract": "contracts/stockenCapital.sol:stockenCapital",
            "label": "adminRole",
            "offset": 0,
            "slot": "1",
            "type": "t_bytes32"
          }
        ],
        "numberOfBytes": "64"
      },
      "t_struct(TokenData)3782_storage": {
        "encoding": "inplace",
        "label": "struct stockenCapital.TokenData",
        "members": [
          {
            "astId": 3767,
            "contract": "contracts/stockenCapital.sol:stockenCapital",
            "label": "owner",
            "offset": 0,
            "slot": "0",
            "type": "t_address"
          },
          {
            "astId": 3769,
            "contract": "contracts/stockenCapital.sol:stockenCapital",
            "label": "idUser",
            "offset": 0,
            "slot": "1",
            "type": "t_uint256"
          },
          {
            "astId": 3771,
            "contract": "contracts/stockenCapital.sol:stockenCapital",
            "label": "idCompany",
            "offset": 0,
            "slot": "2",
            "type": "t_uint256"
          },
          {
            "astId": 3773,
            "contract": "contracts/stockenCapital.sol:stockenCapital",
            "label": "amount",
            "offset": 0,
            "slot": "3",
            "type": "t_uint256"
          },
          {
            "astId": 3776,
            "contract": "contracts/stockenCapital.sol:stockenCapital",
            "label": "range",
            "offset": 0,
            "slot": "4",
            "type": "t_array(t_uint256)dyn_storage"
          },
          {
            "astId": 3779,
            "contract": "contracts/stockenCapital.sol:stockenCapital",
            "label": "category",
            "offset": 0,
            "slot": "5",
            "type": "t_enum(Category)3786"
          },
          {
            "astId": 3781,
            "contract": "contracts/stockenCapital.sol:stockenCapital",
            "label": "info",
            "offset": 0,
            "slot": "6",
            "type": "t_bytes_storage"
          }
        ],
        "numberOfBytes": "224"
      },
      "t_uint256": {
        "encoding": "inplace",
        "label": "uint256",
        "numberOfBytes": "32"
      },
      "t_uint8": {
        "encoding": "inplace",
        "label": "uint8",
        "numberOfBytes": "1"
      }
    }
  }
}