{
  "address": "0x999130047c4dA2108142FB297f32A28e3a31d3D7",
  "abi": [
    {
      "anonymous": false,
      "inputs": [
        {
          "indexed": true,
          "internalType": "address",
          "name": "account",
          "type": "address"
        },
        {
          "indexed": true,
          "internalType": "address",
          "name": "operator",
          "type": "address"
        },
        {
          "indexed": false,
          "internalType": "bool",
          "name": "approved",
          "type": "bool"
        }
      ],
      "name": "ApprovalForAll",
      "type": "event"
    },
    {
      "anonymous": false,
      "inputs": [
        {
          "indexed": false,
          "internalType": "uint8",
          "name": "version",
          "type": "uint8"
        }
      ],
      "name": "Initialized",
      "type": "event"
    },
    {
      "anonymous": false,
      "inputs": [
        {
          "indexed": true,
          "internalType": "bytes32",
          "name": "role",
          "type": "bytes32"
        },
        {
          "indexed": true,
          "internalType": "bytes32",
          "name": "previousAdminRole",
          "type": "bytes32"
        },
        {
          "indexed": true,
          "internalType": "bytes32",
          "name": "newAdminRole",
          "type": "bytes32"
        }
      ],
      "name": "RoleAdminChanged",
      "type": "event"
    },
    {
      "anonymous": false,
      "inputs": [
        {
          "indexed": true,
          "internalType": "bytes32",
          "name": "role",
          "type": "bytes32"
        },
        {
          "indexed": true,
          "internalType": "address",
          "name": "account",
          "type": "address"
        },
        {
          "indexed": true,
          "internalType": "address",
          "name": "sender",
          "type": "address"
        }
      ],
      "name": "RoleGranted",
      "type": "event"
    },
    {
      "anonymous": false,
      "inputs": [
        {
          "indexed": true,
          "internalType": "bytes32",
          "name": "role",
          "type": "bytes32"
        },
        {
          "indexed": true,
          "internalType": "address",
          "name": "account",
          "type": "address"
        },
        {
          "indexed": true,
          "internalType": "address",
          "name": "sender",
          "type": "address"
        }
      ],
      "name": "RoleRevoked",
      "type": "event"
    },
    {
      "anonymous": false,
      "inputs": [
        {
          "indexed": true,
          "internalType": "address",
          "name": "operator",
          "type": "address"
        },
        {
          "indexed": true,
          "internalType": "address",
          "name": "from",
          "type": "address"
        },
        {
          "indexed": true,
          "internalType": "address",
          "name": "to",
          "type": "address"
        },
        {
          "indexed": false,
          "internalType": "uint256[]",
          "name": "ids",
          "type": "uint256[]"
        },
        {
          "indexed": false,
          "internalType": "uint256[]",
          "name": "values",
          "type": "uint256[]"
        }
      ],
      "name": "TransferBatch",
      "type": "event"
    },
    {
      "anonymous": false,
      "inputs": [
        {
          "indexed": true,
          "internalType": "address",
          "name": "operator",
          "type": "address"
        },
        {
          "indexed": true,
          "internalType": "address",
          "name": "from",
          "type": "address"
        },
        {
          "indexed": true,
          "internalType": "address",
          "name": "to",
          "type": "address"
        },
        {
          "indexed": false,
          "internalType": "uint256",
          "name": "id",
          "type": "uint256"
        },
        {
          "indexed": false,
          "internalType": "uint256",
          "name": "value",
          "type": "uint256"
        }
      ],
      "name": "TransferSingle",
      "type": "event"
    },
    {
      "anonymous": false,
      "inputs": [
        {
          "indexed": false,
          "internalType": "string",
          "name": "value",
          "type": "string"
        },
        {
          "indexed": true,
          "internalType": "uint256",
          "name": "id",
          "type": "uint256"
        }
      ],
      "name": "URI",
      "type": "event"
    },
    {
      "anonymous": false,
      "inputs": [
        {
          "indexed": false,
          "internalType": "uint256",
          "name": "ownerId",
          "type": "uint256"
        },
        {
          "indexed": false,
          "internalType": "bytes32",
          "name": "idDocument",
          "type": "bytes32"
        },
        {
          "indexed": false,
          "internalType": "bytes32",
          "name": "hashDocument",
          "type": "bytes32"
        },
        {
          "indexed": false,
          "internalType": "enum stockenCuentasParti.Category",
          "name": "categoria",
          "type": "uint8"
        },
        {
          "indexed": false,
          "internalType": "enum stockenCuentasParti.Type_Transaction",
          "name": "tipo",
          "type": "uint8"
        }
      ],
      "name": "newDocumento",
      "type": "event"
    },
    {
      "inputs": [],
      "name": "DEFAULT_ADMIN_ROLE",
      "outputs": [
        {
          "internalType": "bytes32",
          "name": "",
          "type": "bytes32"
        }
      ],
      "stateMutability": "view",
      "type": "function"
    },
    {
      "inputs": [
        {
          "internalType": "address",
          "name": "account",
          "type": "address"
        },
        {
          "internalType": "uint256",
          "name": "id",
          "type": "uint256"
        }
      ],
      "name": "balanceOf",
      "outputs": [
        {
          "internalType": "uint256",
          "name": "",
          "type": "uint256"
        }
      ],
      "stateMutability": "view",
      "type": "function"
    },
    {
      "inputs": [
        {
          "internalType": "address[]",
          "name": "accounts",
          "type": "address[]"
        },
        {
          "internalType": "uint256[]",
          "name": "ids",
          "type": "uint256[]"
        }
      ],
      "name": "balanceOfBatch",
      "outputs": [
        {
          "internalType": "uint256[]",
          "name": "",
          "type": "uint256[]"
        }
      ],
      "stateMutability": "view",
      "type": "function"
    },
    {
      "inputs": [
        {
          "internalType": "address",
          "name": "account",
          "type": "address"
        },
        {
          "internalType": "uint256",
          "name": "id",
          "type": "uint256"
        },
        {
          "internalType": "uint256",
          "name": "value",
          "type": "uint256"
        }
      ],
      "name": "burn",
      "outputs": [],
      "stateMutability": "nonpayable",
      "type": "function"
    },
    {
      "inputs": [
        {
          "internalType": "address",
          "name": "account",
          "type": "address"
        },
        {
          "internalType": "uint256[]",
          "name": "ids",
          "type": "uint256[]"
        },
        {
          "internalType": "uint256[]",
          "name": "values",
          "type": "uint256[]"
        }
      ],
      "name": "burnBatch",
      "outputs": [],
      "stateMutability": "nonpayable",
      "type": "function"
    },
    {
      "inputs": [
        {
          "internalType": "uint256",
          "name": "_userID",
          "type": "uint256"
        },
        {
          "internalType": "bytes32",
          "name": "_hashDocument",
          "type": "bytes32"
        },
        {
          "internalType": "bytes32",
          "name": "_idDocument",
          "type": "bytes32"
        },
        {
          "internalType": "enum stockenCuentasParti.Category",
          "name": "_categoria",
          "type": "uint8"
        },
        {
          "internalType": "enum stockenCuentasParti.Type_Transaction",
          "name": "_tipo",
          "type": "uint8"
        }
      ],
      "name": "createNewDocumento",
      "outputs": [
        {
          "internalType": "bytes32",
          "name": "",
          "type": "bytes32"
        }
      ],
      "stateMutability": "nonpayable",
      "type": "function"
    },
    {
      "inputs": [
        {
          "internalType": "bytes32",
          "name": "",
          "type": "bytes32"
        }
      ],
      "name": "documentos",
      "outputs": [
        {
          "internalType": "uint256",
          "name": "creationDate",
          "type": "uint256"
        },
        {
          "internalType": "bytes32",
          "name": "id",
          "type": "bytes32"
        },
        {
          "internalType": "uint256",
          "name": "userID",
          "type": "uint256"
        },
        {
          "internalType": "enum stockenCuentasParti.Category",
          "name": "categoria",
          "type": "uint8"
        },
        {
          "internalType": "bytes32",
          "name": "hashDocument",
          "type": "bytes32"
        },
        {
          "internalType": "enum stockenCuentasParti.Type_Transaction",
          "name": "tipo",
          "type": "uint8"
        }
      ],
      "stateMutability": "view",
      "type": "function"
    },
    {
      "inputs": [
        {
          "internalType": "bytes32",
          "name": "_documentoID",
          "type": "bytes32"
        }
      ],
      "name": "getDocumento",
      "outputs": [
        {
          "components": [
            {
              "internalType": "uint256",
              "name": "creationDate",
              "type": "uint256"
            },
            {
              "internalType": "bytes32",
              "name": "id",
              "type": "bytes32"
            },
            {
              "internalType": "uint256",
              "name": "userID",
              "type": "uint256"
            },
            {
              "internalType": "enum stockenCuentasParti.Category",
              "name": "categoria",
              "type": "uint8"
            },
            {
              "internalType": "bytes32",
              "name": "hashDocument",
              "type": "bytes32"
            },
            {
              "internalType": "enum stockenCuentasParti.Type_Transaction",
              "name": "tipo",
              "type": "uint8"
            }
          ],
          "internalType": "struct stockenCuentasParti.Documentos",
          "name": "",
          "type": "tuple"
        }
      ],
      "stateMutability": "view",
      "type": "function"
    },
    {
      "inputs": [
        {
          "internalType": "bytes32",
          "name": "role",
          "type": "bytes32"
        }
      ],
      "name": "getRoleAdmin",
      "outputs": [
        {
          "internalType": "bytes32",
          "name": "",
          "type": "bytes32"
        }
      ],
      "stateMutability": "view",
      "type": "function"
    },
    {
      "inputs": [
        {
          "internalType": "bytes32",
          "name": "role",
          "type": "bytes32"
        },
        {
          "internalType": "address",
          "name": "account",
          "type": "address"
        }
      ],
      "name": "grantRole",
      "outputs": [],
      "stateMutability": "nonpayable",
      "type": "function"
    },
    {
      "inputs": [
        {
          "internalType": "bytes32",
          "name": "role",
          "type": "bytes32"
        },
        {
          "internalType": "address",
          "name": "account",
          "type": "address"
        }
      ],
      "name": "hasRole",
      "outputs": [
        {
          "internalType": "bool",
          "name": "",
          "type": "bool"
        }
      ],
      "stateMutability": "view",
      "type": "function"
    },
    {
      "inputs": [],
      "name": "initialize",
      "outputs": [],
      "stateMutability": "nonpayable",
      "type": "function"
    },
    {
      "inputs": [
        {
          "internalType": "address",
          "name": "account",
          "type": "address"
        },
        {
          "internalType": "address",
          "name": "operator",
          "type": "address"
        }
      ],
      "name": "isApprovedForAll",
      "outputs": [
        {
          "internalType": "bool",
          "name": "",
          "type": "bool"
        }
      ],
      "stateMutability": "view",
      "type": "function"
    },
    {
      "inputs": [
        {
          "internalType": "bytes32",
          "name": "role",
          "type": "bytes32"
        },
        {
          "internalType": "address",
          "name": "account",
          "type": "address"
        }
      ],
      "name": "renounceRole",
      "outputs": [],
      "stateMutability": "nonpayable",
      "type": "function"
    },
    {
      "inputs": [
        {
          "internalType": "bytes32",
          "name": "role",
          "type": "bytes32"
        },
        {
          "internalType": "address",
          "name": "account",
          "type": "address"
        }
      ],
      "name": "revokeRole",
      "outputs": [],
      "stateMutability": "nonpayable",
      "type": "function"
    },
    {
      "inputs": [
        {
          "internalType": "address",
          "name": "from",
          "type": "address"
        },
        {
          "internalType": "address",
          "name": "to",
          "type": "address"
        },
        {
          "internalType": "uint256[]",
          "name": "ids",
          "type": "uint256[]"
        },
        {
          "internalType": "uint256[]",
          "name": "amounts",
          "type": "uint256[]"
        },
        {
          "internalType": "bytes",
          "name": "data",
          "type": "bytes"
        }
      ],
      "name": "safeBatchTransferFrom",
      "outputs": [],
      "stateMutability": "nonpayable",
      "type": "function"
    },
    {
      "inputs": [
        {
          "internalType": "address",
          "name": "from",
          "type": "address"
        },
        {
          "internalType": "address",
          "name": "to",
          "type": "address"
        },
        {
          "internalType": "uint256",
          "name": "id",
          "type": "uint256"
        },
        {
          "internalType": "uint256",
          "name": "amount",
          "type": "uint256"
        },
        {
          "internalType": "bytes",
          "name": "data",
          "type": "bytes"
        }
      ],
      "name": "safeTransferFrom",
      "outputs": [],
      "stateMutability": "nonpayable",
      "type": "function"
    },
    {
      "inputs": [
        {
          "internalType": "address",
          "name": "operator",
          "type": "address"
        },
        {
          "internalType": "bool",
          "name": "approved",
          "type": "bool"
        }
      ],
      "name": "setApprovalForAll",
      "outputs": [],
      "stateMutability": "nonpayable",
      "type": "function"
    },
    {
      "inputs": [
        {
          "internalType": "bytes4",
          "name": "interfaceId",
          "type": "bytes4"
        }
      ],
      "name": "supportsInterface",
      "outputs": [
        {
          "internalType": "bool",
          "name": "",
          "type": "bool"
        }
      ],
      "stateMutability": "view",
      "type": "function"
    },
    {
      "inputs": [
        {
          "internalType": "uint256",
          "name": "",
          "type": "uint256"
        }
      ],
      "name": "uri",
      "outputs": [
        {
          "internalType": "string",
          "name": "",
          "type": "string"
        }
      ],
      "stateMutability": "view",
      "type": "function"
    }
  ],
  "transactionHash": "0x11c595a944ce77f1f11741398efd1a44f040a45ede03662be09cf0f66507bf03",
  "args": [],
  "numDeployments": 1,
  "solcInputHash": "6c7916ac71d5add9879dbc80c1a76a41",
  "bytecode": "0x608060405234801561001057600080fd5b50612201806100206000396000f3fe608060405234801561001057600080fd5b506004361061012b5760003560e01c80638129fc1c116100ad578063b90c6f6711610071578063b90c6f6714610293578063d547741f146102ef578063e985e9c514610302578063f242432a1461033e578063f5298aca1461035157600080fd5b80638129fc1c1461024a57806391d1485414610252578063929b39e614610265578063a217fddf14610278578063a22cb4651461028057600080fd5b80632f2ff15d116100f45780632f2ff15d146101d157806336568abe146101e45780634e1273f4146101f7578063576a36f6146102175780636b20c4541461023757600080fd5b8062fdd58e1461013057806301ffc9a7146101565780630e89341c14610179578063248a9ca3146101995780632eb2c2d6146101bc575b600080fd5b61014361013e3660046119f6565b610364565b6040519081526020015b60405180910390f35b610169610164366004611b60565b6103fc565b604051901515815260200161014d565b61018c610187366004611b24565b610442565b60405161014d9190611da2565b6101436101a7366004611b24565b60009081526065602052604090206001015490565b6101cf6101ca366004611837565b6104d6565b005b6101cf6101df366004611b3d565b610522565b6101cf6101f2366004611b3d565b61054c565b61020a610205366004611a53565b6105ca565b60405161014d9190611d61565b61022a610225366004611b24565b6106f4565b60405161014d9190611ed2565b6101cf610245366004611946565b6107dc565b6101cf610830565b610169610260366004611b3d565b61094c565b610143610273366004611b9a565b610977565b610143600081565b6101cf61028e3660046119ba565b610af4565b6102dd6102a1366004611b24565b60fb6020526000908152604090208054600182015460028301546003840154600485015460059095015493949293919260ff9182169290911686565b60405161014d96959493929190611f61565b6101cf6102fd366004611b3d565b610aff565b610169610310366004611804565b6001600160a01b03918216600090815260986020908152604080832093909416825291909152205460ff1690565b6101cf61034c3660046118e1565b610b24565b6101cf61035f366004611a20565b610b65565b60006001600160a01b0383166103d45760405162461bcd60e51b815260206004820152602a60248201527f455243313135353a2061646472657373207a65726f206973206e6f742061207660448201526930b634b21037bbb732b960b11b60648201526084015b60405180910390fd5b5060009081526097602090815260408083206001600160a01b03949094168352929052205490565b60006001600160e01b03198216636cdb3d1360e11b148061042d57506001600160e01b031982166303a24d0760e21b145b8061043c575061043c82610bb9565b92915050565b60606099805461045190612034565b80601f016020809104026020016040519081016040528092919081815260200182805461047d90612034565b80156104ca5780601f1061049f576101008083540402835291602001916104ca565b820191906000526020600020905b8154815290600101906020018083116104ad57829003601f168201915b50505050509050919050565b6001600160a01b0385163314806104f257506104f28533610310565b61050e5760405162461bcd60e51b81526004016103cb90611df9565b61051b8585858585610bee565b5050505050565b60008281526065602052604090206001015461053d81610e0e565b6105478383610e18565b505050565b6001600160a01b03811633146105bc5760405162461bcd60e51b815260206004820152602f60248201527f416363657373436f6e74726f6c3a2063616e206f6e6c792072656e6f756e636560448201526e103937b632b9903337b91039b2b63360891b60648201526084016103cb565b6105c68282610e9e565b5050565b6060815183511461062f5760405162461bcd60e51b815260206004820152602960248201527f455243313135353a206163636f756e747320616e6420696473206c656e677468604482015268040dad2e6dac2e8c6d60bb1b60648201526084016103cb565b6000835167ffffffffffffffff81111561064b5761064b6120f9565b604051908082528060200260200182016040528015610674578160200160208202803683370190505b50905060005b84518110156106ec576106bf858281518110610698576106986120e3565b60200260200101518583815181106106b2576106b26120e3565b6020026020010151610364565b8282815181106106d1576106d16120e3565b60209081029190910101526106e58161209c565b905061067a565b509392505050565b6040805160c081018252600080825260208201819052918101829052606081018290526080810182905260a081019190915260fb60008381526020019081526020016000206040518060c00160405290816000820154815260200160018201548152602001600282015481526020016003820160009054906101000a900460ff166001811115610786576107866120cd565b6001811115610797576107976120cd565b815260048201546020820152600582015460409091019060ff1660028111156107c2576107c26120cd565b60028111156107d3576107d36120cd565b90525092915050565b6001600160a01b0383163314806107f857506107f88333610310565b80610809575061080960003361094c565b6108255760405162461bcd60e51b81526004016103cb90611df9565b610547838383610f05565b600054610100900460ff16158080156108505750600054600160ff909116105b8061086a5750303b15801561086a575060005460ff166001145b6108cd5760405162461bcd60e51b815260206004820152602e60248201527f496e697469616c697a61626c653a20636f6e747261637420697320616c72656160448201526d191e481a5b9a5d1a585b1a5e995960921b60648201526084016103cb565b6000805460ff1916600117905580156108f0576000805461ff0019166101001790555b6108fb600033611094565b61090361109e565b8015610949576000805461ff0019169055604051600181527f7f26b83ff96e1f2b6a682f133852f6798a09c465da95921460cefb38474024989060200160405180910390a15b50565b60009182526065602090815260408084206001600160a01b0393909316845291905290205460ff1690565b6000610983813361094c565b6109c75760405162461bcd60e51b81526020600482015260156024820152744f6e6c79206f776e65722063616e2061636365737360581b60448201526064016103cb565b6040518060c001604052804281526020018581526020018781526020018460018111156109f6576109f66120cd565b8152602001868152602001836002811115610a1357610a136120cd565b81525060fb600086815260200190815260200160002060008201518160000155602082015181600101556040820151816002015560608201518160030160006101000a81548160ff02191690836001811115610a7157610a716120cd565b02179055506080820151600482015560a082015160058201805460ff19166001836002811115610aa357610aa36120cd565b02179055509050507fb14886804cb2cb2019670d23dc2061fa7cbf9ba7e99fe95dd7c8d9547d20785b8685878686604051610ae2959493929190611f28565b60405180910390a15091949350505050565b6105c633838361110b565b600082815260656020526040902060010154610b1a81610e0e565b6105478383610e9e565b60405162461bcd60e51b815260206004820152601660248201527527379039b290383ab2b232903a3930b739b332b934b960511b60448201526064016103cb565b6001600160a01b038316331480610b815750610b818333610310565b80610b925750610b9260003361094c565b610bae5760405162461bcd60e51b81526004016103cb90611df9565b6105478383836111ec565b60006001600160e01b03198216637965db0b60e01b148061043c57506301ffc9a760e01b6001600160e01b031983161461043c565b8151835114610c0f5760405162461bcd60e51b81526004016103cb90611e8a565b6001600160a01b038416610c735760405162461bcd60e51b815260206004820152602560248201527f455243313135353a207472616e7366657220746f20746865207a65726f206164604482015264647265737360d81b60648201526084016103cb565b3360005b8451811015610da0576000858281518110610c9457610c946120e3565b602002602001015190506000858381518110610cb257610cb26120e3565b60209081029190910181015160008481526097835260408082206001600160a01b038e168352909352919091205490915081811015610d465760405162461bcd60e51b815260206004820152602a60248201527f455243313135353a20696e73756666696369656e742062616c616e636520666f60448201526939103a3930b739b332b960b11b60648201526084016103cb565b60008381526097602090815260408083206001600160a01b038e8116855292528083208585039055908b16825281208054849290610d85908490611fba565b9250508190555050505080610d999061209c565b9050610c77565b50846001600160a01b0316866001600160a01b0316826001600160a01b03167f4a39dc06d4c0dbc64b70af90fd698a233a518aa5d07e595d983b8c0526c8f7fb8787604051610df0929190611d74565b60405180910390a4610e068187878787876112f8565b505050505050565b61094981336114a4565b610e22828261094c565b6105c65760008281526065602090815260408083206001600160a01b03851684529091529020805460ff19166001179055610e5a3390565b6001600160a01b0316816001600160a01b0316837f2f8788117e7eff1d82e926ec794901d17c78024a50270940304540a733656f0d60405160405180910390a45050565b610ea8828261094c565b156105c65760008281526065602090815260408083206001600160a01b0385168085529252808320805460ff1916905551339285917ff6391f5c32d9c69d2a47ea670b442974b53935d1edc7fd64eb21e047a839171b9190a45050565b6001600160a01b038316610f2b5760405162461bcd60e51b81526004016103cb90611e47565b8051825114610f4c5760405162461bcd60e51b81526004016103cb90611e8a565b604080516020810190915260009081905233905b8351811015611025576000848281518110610f7d57610f7d6120e3565b602002602001015190506000848381518110610f9b57610f9b6120e3565b60209081029190910181015160008481526097835260408082206001600160a01b038c168352909352919091205490915081811015610fec5760405162461bcd60e51b81526004016103cb90611db5565b60009283526097602090815260408085206001600160a01b038b168652909152909220910390558061101d8161209c565b915050610f60565b5060006001600160a01b0316846001600160a01b0316826001600160a01b03167f4a39dc06d4c0dbc64b70af90fd698a233a518aa5d07e595d983b8c0526c8f7fb8686604051611076929190611d74565b60405180910390a46040805160208101909152600090525b50505050565b6105c68282610e18565b600054610100900460ff166111095760405162461bcd60e51b815260206004820152602b60248201527f496e697469616c697a61626c653a20636f6e7472616374206973206e6f74206960448201526a6e697469616c697a696e6760a81b60648201526084016103cb565b565b816001600160a01b0316836001600160a01b0316141561117f5760405162461bcd60e51b815260206004820152602960248201527f455243313135353a2073657474696e6720617070726f76616c20737461747573604482015268103337b91039b2b63360b91b60648201526084016103cb565b6001600160a01b03838116600081815260986020908152604080832094871680845294825291829020805460ff191686151590811790915591519182527f17307eab39ab6107e8899845ad3d59bd9653f200f220920489ca2b5937696c31910160405180910390a3505050565b6001600160a01b0383166112125760405162461bcd60e51b81526004016103cb90611e47565b33600061121e846114fd565b9050600061122b846114fd565b6040805160208082018352600091829052888252609781528282206001600160a01b038b16835290522054909150848110156112795760405162461bcd60e51b81526004016103cb90611db5565b60008681526097602090815260408083206001600160a01b038b81168086529184528285208a8703905582518b81529384018a90529092908816917fc3d58168c5ae7397731d063d5bbf3d657854427343f4c083240f7aacaa2d0f62910160405180910390a46040805160208101909152600090525b50505050505050565b6001600160a01b0384163b15610e065760405163bc197c8160e01b81526001600160a01b0385169063bc197c819061133c9089908990889088908890600401611cf8565b602060405180830381600087803b15801561135657600080fd5b505af1925050508015611386575060408051601f3d908101601f1916820190925261138391810190611b7d565b60015b6114335761139261210f565b806308c379a014156113cc57506113a761212b565b806113b257506113ce565b8060405162461bcd60e51b81526004016103cb9190611da2565b505b60405162461bcd60e51b815260206004820152603460248201527f455243313135353a207472616e7366657220746f206e6f6e2d455243313135356044820152732932b1b2b4bb32b91034b6b83632b6b2b73a32b960611b60648201526084016103cb565b6001600160e01b0319811663bc197c8160e01b146112ef5760405162461bcd60e51b815260206004820152602860248201527f455243313135353a204552433131353552656365697665722072656a656374656044820152676420746f6b656e7360c01b60648201526084016103cb565b6114ae828261094c565b6105c6576114bb81611548565b6114c683602061155a565b6040516020016114d7929190611c83565b60408051601f198184030181529082905262461bcd60e51b82526103cb91600401611da2565b60408051600180825281830190925260609160009190602080830190803683370190505090508281600081518110611537576115376120e3565b602090810291909101015292915050565b606061043c6001600160a01b03831660145b60606000611569836002611fd2565b611574906002611fba565b67ffffffffffffffff81111561158c5761158c6120f9565b6040519080825280601f01601f1916602001820160405280156115b6576020820181803683370190505b509050600360fc1b816000815181106115d1576115d16120e3565b60200101906001600160f81b031916908160001a905350600f60fb1b81600181518110611600576116006120e3565b60200101906001600160f81b031916908160001a9053506000611624846002611fd2565b61162f906001611fba565b90505b60018111156116a7576f181899199a1a9b1b9c1cb0b131b232b360811b85600f1660108110611663576116636120e3565b1a60f81b828281518110611679576116796120e3565b60200101906001600160f81b031916908160001a90535060049490941c936116a08161201d565b9050611632565b5083156116f65760405162461bcd60e51b815260206004820181905260248201527f537472696e67733a20686578206c656e67746820696e73756666696369656e7460448201526064016103cb565b9392505050565b80356001600160a01b038116811461171457600080fd5b919050565b600082601f83011261172a57600080fd5b8135602061173782611f96565b604051611744828261206f565b8381528281019150858301600585901b8701840188101561176457600080fd5b60005b8581101561178357813584529284019290840190600101611767565b5090979650505050505050565b600082601f8301126117a157600080fd5b813567ffffffffffffffff8111156117bb576117bb6120f9565b6040516117d2601f8301601f19166020018261206f565b8181528460208386010111156117e757600080fd5b816020850160208301376000918101602001919091529392505050565b6000806040838503121561181757600080fd5b611820836116fd565b915061182e602084016116fd565b90509250929050565b600080600080600060a0868803121561184f57600080fd5b611858866116fd565b9450611866602087016116fd565b9350604086013567ffffffffffffffff8082111561188357600080fd5b61188f89838a01611719565b945060608801359150808211156118a557600080fd5b6118b189838a01611719565b935060808801359150808211156118c757600080fd5b506118d488828901611790565b9150509295509295909350565b600080600080600060a086880312156118f957600080fd5b611902866116fd565b9450611910602087016116fd565b93506040860135925060608601359150608086013567ffffffffffffffff81111561193a57600080fd5b6118d488828901611790565b60008060006060848603121561195b57600080fd5b611964846116fd565b9250602084013567ffffffffffffffff8082111561198157600080fd5b61198d87838801611719565b935060408601359150808211156119a357600080fd5b506119b086828701611719565b9150509250925092565b600080604083850312156119cd57600080fd5b6119d6836116fd565b9150602083013580151581146119eb57600080fd5b809150509250929050565b60008060408385031215611a0957600080fd5b611a12836116fd565b946020939093013593505050565b600080600060608486031215611a3557600080fd5b611a3e846116fd565b95602085013595506040909401359392505050565b60008060408385031215611a6657600080fd5b823567ffffffffffffffff80821115611a7e57600080fd5b818501915085601f830112611a9257600080fd5b81356020611a9f82611f96565b604051611aac828261206f565b8381528281019150858301600585901b870184018b1015611acc57600080fd5b600096505b84871015611af657611ae2816116fd565b835260019690960195918301918301611ad1565b5096505086013592505080821115611b0d57600080fd5b50611b1a85828601611719565b9150509250929050565b600060208284031215611b3657600080fd5b5035919050565b60008060408385031215611b5057600080fd5b8235915061182e602084016116fd565b600060208284031215611b7257600080fd5b81356116f6816121b5565b600060208284031215611b8f57600080fd5b81516116f6816121b5565b600080600080600060a08688031215611bb257600080fd5b853594506020860135935060408601359250606086013560028110611bd657600080fd5b9150608086013560038110611bea57600080fd5b809150509295509295909350565b600081518084526020808501945080840160005b83811015611c2857815187529582019590820190600101611c0c565b509495945050505050565b60008151808452611c4b816020860160208601611ff1565b601f01601f19169290920160200192915050565b60028110611c6f57611c6f6120cd565b9052565b60038110611c6f57611c6f6120cd565b7f416363657373436f6e74726f6c3a206163636f756e7420000000000000000000815260008351611cbb816017850160208801611ff1565b7001034b99036b4b9b9b4b733903937b6329607d1b6017918401918201528351611cec816028840160208801611ff1565b01602801949350505050565b6001600160a01b0386811682528516602082015260a060408201819052600090611d2490830186611bf8565b8281036060840152611d368186611bf8565b90508281036080840152611d4a8185611c33565b98975050505050505050565b979650505050505050565b6020815260006116f66020830184611bf8565b604081526000611d876040830185611bf8565b8281036020840152611d998185611bf8565b95945050505050565b6020815260006116f66020830184611c33565b60208082526024908201527f455243313135353a206275726e20616d6f756e7420657863656564732062616c604082015263616e636560e01b606082015260800190565b6020808252602e908201527f455243313135353a2063616c6c6572206973206e6f7420746f6b656e206f776e60408201526d195c881bdc88185c1c1c9bdd995960921b606082015260800190565b60208082526023908201527f455243313135353a206275726e2066726f6d20746865207a65726f206164647260408201526265737360e81b606082015260800190565b60208082526028908201527f455243313135353a2069647320616e6420616d6f756e7473206c656e677468206040820152670dad2e6dac2e8c6d60c31b606082015260800190565b600060c0820190508251825260208301516020830152604083015160408301526060830151611f046060840182611c5f565b506080830151608083015260a0830151611f2160a0840182611c73565b5092915050565b858152602081018590526040810184905260a08101611f4a6060830185611c5f565b611f576080830184611c73565b9695505050505050565b868152602081018690526040810185905260c08101611f836060830186611c5f565b836080830152611d5660a0830184611c73565b600067ffffffffffffffff821115611fb057611fb06120f9565b5060051b60200190565b60008219821115611fcd57611fcd6120b7565b500190565b6000816000190483118215151615611fec57611fec6120b7565b500290565b60005b8381101561200c578181015183820152602001611ff4565b8381111561108e5750506000910152565b60008161202c5761202c6120b7565b506000190190565b600181811c9082168061204857607f821691505b6020821081141561206957634e487b7160e01b600052602260045260246000fd5b50919050565b601f8201601f1916810167ffffffffffffffff81118282101715612095576120956120f9565b6040525050565b60006000198214156120b0576120b06120b7565b5060010190565b634e487b7160e01b600052601160045260246000fd5b634e487b7160e01b600052602160045260246000fd5b634e487b7160e01b600052603260045260246000fd5b634e487b7160e01b600052604160045260246000fd5b600060033d11156121285760046000803e5060005160e01c5b90565b600060443d10156121395790565b6040516003193d81016004833e81513d67ffffffffffffffff816024840111818411171561216957505050505090565b82850191508151818111156121815750505050505090565b843d870101602082850101111561219b5750505050505090565b6121aa6020828601018761206f565b509095945050505050565b6001600160e01b03198116811461094957600080fdfea2646970667358221220fa56af1549b6d92222e40cf06e39e5448cf59281c58f467c65d4b82de2883f9264736f6c63430008070033",
  "devdoc": {
    "kind": "dev",
    "methods": {
      "balanceOf(address,uint256)": {
        "details": "See {IERC1155-balanceOf}. Requirements: - `account` cannot be the zero address."
      },
      "balanceOfBatch(address[],uint256[])": {
        "details": "See {IERC1155-balanceOfBatch}. Requirements: - `accounts` and `ids` must have the same length."
      },
      "createNewDocumento(uint256,bytes32,bytes32,uint8,uint8)": {
        "details": "user creates new NFTs"
      },
      "getRoleAdmin(bytes32)": {
        "details": "Returns the admin role that controls `role`. See {grantRole} and {revokeRole}. To change a role's admin, use {_setRoleAdmin}."
      },
      "grantRole(bytes32,address)": {
        "details": "Grants `role` to `account`. If `account` had not been already granted `role`, emits a {RoleGranted} event. Requirements: - the caller must have ``role``'s admin role. May emit a {RoleGranted} event."
      },
      "hasRole(bytes32,address)": {
        "details": "Returns `true` if `account` has been granted `role`."
      },
      "isApprovedForAll(address,address)": {
        "details": "See {IERC1155-isApprovedForAll}."
      },
      "renounceRole(bytes32,address)": {
        "details": "Revokes `role` from the calling account. Roles are often managed via {grantRole} and {revokeRole}: this function's purpose is to provide a mechanism for accounts to lose their privileges if they are compromised (such as when a trusted device is misplaced). If the calling account had been revoked `role`, emits a {RoleRevoked} event. Requirements: - the caller must be `account`. May emit a {RoleRevoked} event."
      },
      "revokeRole(bytes32,address)": {
        "details": "Revokes `role` from `account`. If `account` had been granted `role`, emits a {RoleRevoked} event. Requirements: - the caller must have ``role``'s admin role. May emit a {RoleRevoked} event."
      },
      "safeBatchTransferFrom(address,address,uint256[],uint256[],bytes)": {
        "details": "See {IERC1155-safeBatchTransferFrom}."
      },
      "safeTransferFrom(address,address,uint256,uint256,bytes)": {
        "details": "See {IERC1155-safeTransferFrom}."
      },
      "setApprovalForAll(address,bool)": {
        "details": "See {IERC1155-setApprovalForAll}."
      },
      "supportsInterface(bytes4)": {
        "details": "See {IERC165-supportsInterface}."
      },
      "uri(uint256)": {
        "details": "See {IERC1155MetadataURI-uri}. This implementation returns the same URI for *all* token types. It relies on the token type ID substitution mechanism https://eips.ethereum.org/EIPS/eip-1155#metadata[defined in the EIP]. Clients calling this function must replace the `\\{id\\}` substring with the actual token type ID."
      }
    },
    "version": 1
  },
  "userdoc": {
    "kind": "user",
    "methods": {},
    "version": 1
  },
  "storageLayout": {
    "storage": [
      {
        "astId": 415,
        "contract": "contracts/stockenCuentasParti.sol:stockenCuentasParti",
        "label": "_initialized",
        "offset": 0,
        "slot": "0",
        "type": "t_uint8"
      },
      {
        "astId": 418,
        "contract": "contracts/stockenCuentasParti.sol:stockenCuentasParti",
        "label": "_initializing",
        "offset": 1,
        "slot": "0",
        "type": "t_bool"
      },
      {
        "astId": 2483,
        "contract": "contracts/stockenCuentasParti.sol:stockenCuentasParti",
        "label": "__gap",
        "offset": 0,
        "slot": "1",
        "type": "t_array(t_uint256)50_storage"
      },
      {
        "astId": 2756,
        "contract": "contracts/stockenCuentasParti.sol:stockenCuentasParti",
        "label": "__gap",
        "offset": 0,
        "slot": "51",
        "type": "t_array(t_uint256)50_storage"
      },
      {
        "astId": 39,
        "contract": "contracts/stockenCuentasParti.sol:stockenCuentasParti",
        "label": "_roles",
        "offset": 0,
        "slot": "101",
        "type": "t_mapping(t_bytes32,t_struct(RoleData)34_storage)"
      },
      {
        "astId": 334,
        "contract": "contracts/stockenCuentasParti.sol:stockenCuentasParti",
        "label": "__gap",
        "offset": 0,
        "slot": "102",
        "type": "t_array(t_uint256)49_storage"
      },
      {
        "astId": 609,
        "contract": "contracts/stockenCuentasParti.sol:stockenCuentasParti",
        "label": "_balances",
        "offset": 0,
        "slot": "151",
        "type": "t_mapping(t_uint256,t_mapping(t_address,t_uint256))"
      },
      {
        "astId": 615,
        "contract": "contracts/stockenCuentasParti.sol:stockenCuentasParti",
        "label": "_operatorApprovals",
        "offset": 0,
        "slot": "152",
        "type": "t_mapping(t_address,t_mapping(t_address,t_bool))"
      },
      {
        "astId": 617,
        "contract": "contracts/stockenCuentasParti.sol:stockenCuentasParti",
        "label": "_uri",
        "offset": 0,
        "slot": "153",
        "type": "t_string_storage"
      },
      {
        "astId": 1832,
        "contract": "contracts/stockenCuentasParti.sol:stockenCuentasParti",
        "label": "__gap",
        "offset": 0,
        "slot": "154",
        "type": "t_array(t_uint256)47_storage"
      },
      {
        "astId": 2096,
        "contract": "contracts/stockenCuentasParti.sol:stockenCuentasParti",
        "label": "__gap",
        "offset": 0,
        "slot": "201",
        "type": "t_array(t_uint256)50_storage"
      },
      {
        "astId": 3776,
        "contract": "contracts/stockenCuentasParti.sol:stockenCuentasParti",
        "label": "documentos",
        "offset": 0,
        "slot": "251",
        "type": "t_mapping(t_bytes32,t_struct(Documentos)3764_storage)"
      }
    ],
    "types": {
      "t_address": {
        "encoding": "inplace",
        "label": "address",
        "numberOfBytes": "20"
      },
      "t_array(t_uint256)47_storage": {
        "base": "t_uint256",
        "encoding": "inplace",
        "label": "uint256[47]",
        "numberOfBytes": "1504"
      },
      "t_array(t_uint256)49_storage": {
        "base": "t_uint256",
        "encoding": "inplace",
        "label": "uint256[49]",
        "numberOfBytes": "1568"
      },
      "t_array(t_uint256)50_storage": {
        "base": "t_uint256",
        "encoding": "inplace",
        "label": "uint256[50]",
        "numberOfBytes": "1600"
      },
      "t_bool": {
        "encoding": "inplace",
        "label": "bool",
        "numberOfBytes": "1"
      },
      "t_bytes32": {
        "encoding": "inplace",
        "label": "bytes32",
        "numberOfBytes": "32"
      },
      "t_enum(Category)3767": {
        "encoding": "inplace",
        "label": "enum stockenCuentasParti.Category",
        "numberOfBytes": "1"
      },
      "t_enum(Type_Transaction)3771": {
        "encoding": "inplace",
        "label": "enum stockenCuentasParti.Type_Transaction",
        "numberOfBytes": "1"
      },
      "t_mapping(t_address,t_bool)": {
        "encoding": "mapping",
        "key": "t_address",
        "label": "mapping(address => bool)",
        "numberOfBytes": "32",
        "value": "t_bool"
      },
      "t_mapping(t_address,t_mapping(t_address,t_bool))": {
        "encoding": "mapping",
        "key": "t_address",
        "label": "mapping(address => mapping(address => bool))",
        "numberOfBytes": "32",
        "value": "t_mapping(t_address,t_bool)"
      },
      "t_mapping(t_address,t_uint256)": {
        "encoding": "mapping",
        "key": "t_address",
        "label": "mapping(address => uint256)",
        "numberOfBytes": "32",
        "value": "t_uint256"
      },
      "t_mapping(t_bytes32,t_struct(Documentos)3764_storage)": {
        "encoding": "mapping",
        "key": "t_bytes32",
        "label": "mapping(bytes32 => struct stockenCuentasParti.Documentos)",
        "numberOfBytes": "32",
        "value": "t_struct(Documentos)3764_storage"
      },
      "t_mapping(t_bytes32,t_struct(RoleData)34_storage)": {
        "encoding": "mapping",
        "key": "t_bytes32",
        "label": "mapping(bytes32 => struct AccessControlUpgradeable.RoleData)",
        "numberOfBytes": "32",
        "value": "t_struct(RoleData)34_storage"
      },
      "t_mapping(t_uint256,t_mapping(t_address,t_uint256))": {
        "encoding": "mapping",
        "key": "t_uint256",
        "label": "mapping(uint256 => mapping(address => uint256))",
        "numberOfBytes": "32",
        "value": "t_mapping(t_address,t_uint256)"
      },
      "t_string_storage": {
        "encoding": "bytes",
        "label": "string",
        "numberOfBytes": "32"
      },
      "t_struct(Documentos)3764_storage": {
        "encoding": "inplace",
        "label": "struct stockenCuentasParti.Documentos",
        "members": [
          {
            "astId": 3751,
            "contract": "contracts/stockenCuentasParti.sol:stockenCuentasParti",
            "label": "creationDate",
            "offset": 0,
            "slot": "0",
            "type": "t_uint256"
          },
          {
            "astId": 3753,
            "contract": "contracts/stockenCuentasParti.sol:stockenCuentasParti",
            "label": "id",
            "offset": 0,
            "slot": "1",
            "type": "t_bytes32"
          },
          {
            "astId": 3755,
            "contract": "contracts/stockenCuentasParti.sol:stockenCuentasParti",
            "label": "userID",
            "offset": 0,
            "slot": "2",
            "type": "t_uint256"
          },
          {
            "astId": 3758,
            "contract": "contracts/stockenCuentasParti.sol:stockenCuentasParti",
            "label": "categoria",
            "offset": 0,
            "slot": "3",
            "type": "t_enum(Category)3767"
          },
          {
            "astId": 3760,
            "contract": "contracts/stockenCuentasParti.sol:stockenCuentasParti",
            "label": "hashDocument",
            "offset": 0,
            "slot": "4",
            "type": "t_bytes32"
          },
          {
            "astId": 3763,
            "contract": "contracts/stockenCuentasParti.sol:stockenCuentasParti",
            "label": "tipo",
            "offset": 0,
            "slot": "5",
            "type": "t_enum(Type_Transaction)3771"
          }
        ],
        "numberOfBytes": "192"
      },
      "t_struct(RoleData)34_storage": {
        "encoding": "inplace",
        "label": "struct AccessControlUpgradeable.RoleData",
        "members": [
          {
            "astId": 31,
            "contract": "contracts/stockenCuentasParti.sol:stockenCuentasParti",
            "label": "members",
            "offset": 0,
            "slot": "0",
            "type": "t_mapping(t_address,t_bool)"
          },
          {
            "astId": 33,
            "contract": "contracts/stockenCuentasParti.sol:stockenCuentasParti",
            "label": "adminRole",
            "offset": 0,
            "slot": "1",
            "type": "t_bytes32"
          }
        ],
        "numberOfBytes": "64"
      },
      "t_uint256": {
        "encoding": "inplace",
        "label": "uint256",
        "numberOfBytes": "32"
      },
      "t_uint8": {
        "encoding": "inplace",
        "label": "uint8",
        "numberOfBytes": "1"
      }
    }
  }
}